{
  "contractName": "AaveProtocolDataProvider",
  "abi": [
    {
      "inputs": [
        {
          "internalType": "contract ILendingPoolAddressesProvider",
          "name": "addressesProvider",
          "type": "address"
        }
      ],
      "stateMutability": "nonpayable",
      "type": "constructor"
    },
    {
      "inputs": [],
      "name": "ADDRESSES_PROVIDER",
      "outputs": [
        {
          "internalType": "contract ILendingPoolAddressesProvider",
          "name": "",
          "type": "address"
        }
      ],
      "stateMutability": "view",
      "type": "function"
    },
    {
      "inputs": [],
      "name": "getAllReservesTokens",
      "outputs": [
        {
          "components": [
            {
              "internalType": "string",
              "name": "symbol",
              "type": "string"
            },
            {
              "internalType": "address",
              "name": "tokenAddress",
              "type": "address"
            }
          ],
          "internalType": "struct AaveProtocolDataProvider.TokenData[]",
          "name": "",
          "type": "tuple[]"
        }
      ],
      "stateMutability": "view",
      "type": "function"
    },
    {
      "inputs": [],
      "name": "getAllATokens",
      "outputs": [
        {
          "components": [
            {
              "internalType": "string",
              "name": "symbol",
              "type": "string"
            },
            {
              "internalType": "address",
              "name": "tokenAddress",
              "type": "address"
            }
          ],
          "internalType": "struct AaveProtocolDataProvider.TokenData[]",
          "name": "",
          "type": "tuple[]"
        }
      ],
      "stateMutability": "view",
      "type": "function"
    },
    {
      "inputs": [
        {
          "internalType": "address",
          "name": "asset",
          "type": "address"
        }
      ],
      "name": "getReserveConfigurationData",
      "outputs": [
        {
          "internalType": "uint256",
          "name": "decimals",
          "type": "uint256"
        },
        {
          "internalType": "uint256",
          "name": "ltv",
          "type": "uint256"
        },
        {
          "internalType": "uint256",
          "name": "liquidationThreshold",
          "type": "uint256"
        },
        {
          "internalType": "uint256",
          "name": "liquidationBonus",
          "type": "uint256"
        },
        {
          "internalType": "uint256",
          "name": "reserveFactor",
          "type": "uint256"
        },
        {
          "internalType": "bool",
          "name": "usageAsCollateralEnabled",
          "type": "bool"
        },
        {
          "internalType": "bool",
          "name": "borrowingEnabled",
          "type": "bool"
        },
        {
          "internalType": "bool",
          "name": "stableBorrowRateEnabled",
          "type": "bool"
        },
        {
          "internalType": "bool",
          "name": "isActive",
          "type": "bool"
        },
        {
          "internalType": "bool",
          "name": "isFrozen",
          "type": "bool"
        }
      ],
      "stateMutability": "view",
      "type": "function"
    },
    {
      "inputs": [
        {
          "internalType": "address",
          "name": "asset",
          "type": "address"
        }
      ],
      "name": "getReserveData",
      "outputs": [
        {
          "internalType": "uint256",
          "name": "availableLiquidity",
          "type": "uint256"
        },
        {
          "internalType": "uint256",
          "name": "totalStableDebt",
          "type": "uint256"
        },
        {
          "internalType": "uint256",
          "name": "totalVariableDebt",
          "type": "uint256"
        },
        {
          "internalType": "uint256",
          "name": "liquidityRate",
          "type": "uint256"
        },
        {
          "internalType": "uint256",
          "name": "variableBorrowRate",
          "type": "uint256"
        },
        {
          "internalType": "uint256",
          "name": "stableBorrowRate",
          "type": "uint256"
        },
        {
          "internalType": "uint256",
          "name": "averageStableBorrowRate",
          "type": "uint256"
        },
        {
          "internalType": "uint256",
          "name": "liquidityIndex",
          "type": "uint256"
        },
        {
          "internalType": "uint256",
          "name": "variableBorrowIndex",
          "type": "uint256"
        },
        {
          "internalType": "uint40",
          "name": "lastUpdateTimestamp",
          "type": "uint40"
        }
      ],
      "stateMutability": "view",
      "type": "function"
    },
    {
      "inputs": [
        {
          "internalType": "address",
          "name": "asset",
          "type": "address"
        },
        {
          "internalType": "address",
          "name": "user",
          "type": "address"
        }
      ],
      "name": "getUserReserveData",
      "outputs": [
        {
          "internalType": "uint256",
          "name": "currentATokenBalance",
          "type": "uint256"
        },
        {
          "internalType": "uint256",
          "name": "currentStableDebt",
          "type": "uint256"
        },
        {
          "internalType": "uint256",
          "name": "currentVariableDebt",
          "type": "uint256"
        },
        {
          "internalType": "uint256",
          "name": "principalStableDebt",
          "type": "uint256"
        },
        {
          "internalType": "uint256",
          "name": "scaledVariableDebt",
          "type": "uint256"
        },
        {
          "internalType": "uint256",
          "name": "stableBorrowRate",
          "type": "uint256"
        },
        {
          "internalType": "uint256",
          "name": "liquidityRate",
          "type": "uint256"
        },
        {
          "internalType": "uint40",
          "name": "stableRateLastUpdated",
          "type": "uint40"
        },
        {
          "internalType": "bool",
          "name": "usageAsCollateralEnabled",
          "type": "bool"
        }
      ],
      "stateMutability": "view",
      "type": "function"
    },
    {
      "inputs": [
        {
          "internalType": "address",
          "name": "asset",
          "type": "address"
        }
      ],
      "name": "getReserveTokensAddresses",
      "outputs": [
        {
          "internalType": "address",
          "name": "aTokenAddress",
          "type": "address"
        },
        {
          "internalType": "address",
          "name": "stableDebtTokenAddress",
          "type": "address"
        },
        {
          "internalType": "address",
          "name": "variableDebtTokenAddress",
          "type": "address"
        }
      ],
      "stateMutability": "view",
      "type": "function"
    }
  ],
  "bytecode": "0x60a06040523480156200001157600080fd5b506040516200271d3803806200271d8339818101604052810190620000379190620000f0565b8073ffffffffffffffffffffffffffffffffffffffff1660808173ffffffffffffffffffffffffffffffffffffffff16815250505062000122565b600080fd5b600073ffffffffffffffffffffffffffffffffffffffff82169050919050565b6000620000a48262000077565b9050919050565b6000620000b88262000097565b9050919050565b620000ca81620000ab565b8114620000d657600080fd5b50565b600081519050620000ea81620000bf565b92915050565b60006020828403121562000109576200010862000072565b5b60006200011984828501620000d9565b91505092915050565b6080516125ae6200016f600039600081816101ba015281816101ed015281816102fa015281816107e001528181610b7f01528181610cd701528181611155015261128301526125ae6000f3fe608060405234801561001057600080fd5b506004361061007d5760003560e01c80633e1501411161005b5780633e15014114610111578063b316ff891461014a578063d2493b6c14610168578063f561ae411461019a5761007d565b80630542975c1461008257806328dd2d01146100a057806335ea6a75146100d8575b600080fd5b61008a6101b8565b604051610097919061187d565b60405180910390f35b6100ba60048036038101906100b591906118ea565b6101dc565b6040516100cf9998979695949392919061197e565b60405180910390f35b6100f260048036038101906100ed9190611a0b565b6107cd565b6040516101089a99989796959493929190611a38565b60405180910390f35b61012b60048036038101906101269190611a0b565b610b6c565b6040516101419a99989796959493929190611ad4565b60405180910390f35b610152610cd1565b60405161015f9190611d17565b60405180910390f35b610182600480360381019061017d9190611a0b565b61114d565b60405161019193929190611d48565b60405180910390f35b6101a261127d565b6040516101af9190611d17565b60405180910390f35b7f000000000000000000000000000000000000000000000000000000000000000081565b6000806000806000806000806000807f000000000000000000000000000000000000000000000000000000000000000073ffffffffffffffffffffffffffffffffffffffff16630261bf8b6040518163ffffffff1660e01b8152600401602060405180830381865afa158015610256573d6000803e3d6000fd5b505050506040513d601f19601f8201168201806040525081019061027a9190611d94565b73ffffffffffffffffffffffffffffffffffffffff166335ea6a758d6040518263ffffffff1660e01b81526004016102b29190611dc1565b61018060405180830381865afa1580156102d0573d6000803e3d6000fd5b505050506040513d601f19601f820116820180604052508101906102f49190612093565b905060007f000000000000000000000000000000000000000000000000000000000000000073ffffffffffffffffffffffffffffffffffffffff16630261bf8b6040518163ffffffff1660e01b8152600401602060405180830381865afa158015610363573d6000803e3d6000fd5b505050506040513d601f19601f820116820180604052508101906103879190611d94565b73ffffffffffffffffffffffffffffffffffffffff16634417a5838d6040518263ffffffff1660e01b81526004016103bf9190611dc1565b602060405180830381865afa1580156103dc573d6000803e3d6000fd5b505050506040513d601f19601f8201168201806040525081019061040091906120fd565b90508160e0015173ffffffffffffffffffffffffffffffffffffffff166370a082318d6040518263ffffffff1660e01b815260040161043f9190611dc1565b602060405180830381865afa15801561045c573d6000803e3d6000fd5b505050506040513d601f19601f82011682018060405250810190610480919061212a565b9a5081610120015173ffffffffffffffffffffffffffffffffffffffff166370a082318d6040518263ffffffff1660e01b81526004016104c09190611dc1565b602060405180830381865afa1580156104dd573d6000803e3d6000fd5b505050506040513d601f19601f82011682018060405250810190610501919061212a565b985081610100015173ffffffffffffffffffffffffffffffffffffffff166370a082318d6040518263ffffffff1660e01b81526004016105419190611dc1565b602060405180830381865afa15801561055e573d6000803e3d6000fd5b505050506040513d601f19601f82011682018060405250810190610582919061212a565b995081610100015173ffffffffffffffffffffffffffffffffffffffff1663c634dfaa8d6040518263ffffffff1660e01b81526004016105c29190611dc1565b602060405180830381865afa1580156105df573d6000803e3d6000fd5b505050506040513d601f19601f82011682018060405250810190610603919061212a565b975081610120015173ffffffffffffffffffffffffffffffffffffffff16631da24f3e8d6040518263ffffffff1660e01b81526004016106439190611dc1565b602060405180830381865afa158015610660573d6000803e3d6000fd5b505050506040513d601f19601f82011682018060405250810190610684919061212a565b965081606001516fffffffffffffffffffffffffffffffff16945081610100015173ffffffffffffffffffffffffffffffffffffffff1663e78c9b3b8d6040518263ffffffff1660e01b81526004016106dd9190611dc1565b602060405180830381865afa1580156106fa573d6000803e3d6000fd5b505050506040513d601f19601f8201168201806040525081019061071e919061212a565b955081610100015173ffffffffffffffffffffffffffffffffffffffff166379ce6b8c8d6040518263ffffffff1660e01b815260040161075e9190611dc1565b602060405180830381865afa15801561077b573d6000803e3d6000fd5b505050506040513d601f19601f8201168201806040525081019061079f9190612157565b93506107bc82610160015160ff168261156a90919063ffffffff16565b925050509295985092959850929598565b60008060008060008060008060008060007f000000000000000000000000000000000000000000000000000000000000000073ffffffffffffffffffffffffffffffffffffffff16630261bf8b6040518163ffffffff1660e01b8152600401602060405180830381865afa158015610849573d6000803e3d6000fd5b505050506040513d601f19601f8201168201806040525081019061086d9190611d94565b73ffffffffffffffffffffffffffffffffffffffff166335ea6a758d6040518263ffffffff1660e01b81526004016108a59190611dc1565b61018060405180830381865afa1580156108c3573d6000803e3d6000fd5b505050506040513d601f19601f820116820180604052508101906108e79190612093565b90508b73ffffffffffffffffffffffffffffffffffffffff166370a082318260e001516040518263ffffffff1660e01b81526004016109269190611dc1565b602060405180830381865afa158015610943573d6000803e3d6000fd5b505050506040513d601f19601f82011682018060405250810190610967919061212a565b81610100015173ffffffffffffffffffffffffffffffffffffffff166318160ddd6040518163ffffffff1660e01b8152600401602060405180830381865afa1580156109b7573d6000803e3d6000fd5b505050506040513d601f19601f820116820180604052508101906109db919061212a565b82610120015173ffffffffffffffffffffffffffffffffffffffff166318160ddd6040518163ffffffff1660e01b8152600401602060405180830381865afa158015610a2b573d6000803e3d6000fd5b505050506040513d601f19601f82011682018060405250810190610a4f919061212a565b836060015184608001518560a0015186610100015173ffffffffffffffffffffffffffffffffffffffff166390f6fcf26040518163ffffffff1660e01b8152600401602060405180830381865afa158015610aae573d6000803e3d6000fd5b505050506040513d601f19601f82011682018060405250810190610ad2919061212a565b876020015188604001518960c00151866fffffffffffffffffffffffffffffffff169650856fffffffffffffffffffffffffffffffff169550846fffffffffffffffffffffffffffffffff169450826fffffffffffffffffffffffffffffffff169250816fffffffffffffffffffffffffffffffff1691509a509a509a509a509a509a509a509a509a509a50509193959799509193959799565b60008060008060008060008060008060007f000000000000000000000000000000000000000000000000000000000000000073ffffffffffffffffffffffffffffffffffffffff16630261bf8b6040518163ffffffff1660e01b8152600401602060405180830381865afa158015610be8573d6000803e3d6000fd5b505050506040513d601f19601f82011682018060405250810190610c0c9190611d94565b73ffffffffffffffffffffffffffffffffffffffff1663c44b11f78d6040518263ffffffff1660e01b8152600401610c449190611dc1565b602060405180830381865afa158015610c61573d6000803e3d6000fd5b505050506040513d601f19601f82011682018060405250810190610c859190612184565b9050610c9081611616565b809b50819f50829c50839d50849e505050505050610cad81611709565b80975081985082955083965050505050600089119550509193959799509193959799565b606060007f000000000000000000000000000000000000000000000000000000000000000073ffffffffffffffffffffffffffffffffffffffff16630261bf8b6040518163ffffffff1660e01b8152600401602060405180830381865afa158015610d40573d6000803e3d6000fd5b505050506040513d601f19601f82011682018060405250810190610d649190611d94565b905060008173ffffffffffffffffffffffffffffffffffffffff1663d1946dbc6040518163ffffffff1660e01b8152600401600060405180830381865afa158015610db3573d6000803e3d6000fd5b505050506040513d6000823e3d601f19601f82011682018060405250810190610ddc919061227e565b90506000815167ffffffffffffffff811115610dfb57610dfa611de1565b5b604051908082528060200260200182016040528015610e3457816020015b610e216117ce565b815260200190600190039081610e195790505b50905060005b825181101561114357739f8f72aa9304c8b593d555f12ef6589cc3a579a273ffffffffffffffffffffffffffffffffffffffff16838281518110610e8157610e806122c7565b5b602002602001015173ffffffffffffffffffffffffffffffffffffffff1603610f415760405180604001604052806040518060400160405280600381526020017f4d4b5200000000000000000000000000000000000000000000000000000000008152508152602001848381518110610efd57610efc6122c7565b5b602002602001015173ffffffffffffffffffffffffffffffffffffffff16815250828281518110610f3157610f306122c7565b5b6020026020010181905250611130565b73eeeeeeeeeeeeeeeeeeeeeeeeeeeeeeeeeeeeeeee73ffffffffffffffffffffffffffffffffffffffff16838281518110610f7f57610f7e6122c7565b5b602002602001015173ffffffffffffffffffffffffffffffffffffffff160361103f5760405180604001604052806040518060400160405280600381526020017f45544800000000000000000000000000000000000000000000000000000000008152508152602001848381518110610ffb57610ffa6122c7565b5b602002602001015173ffffffffffffffffffffffffffffffffffffffff1681525082828151811061102f5761102e6122c7565b5b6020026020010181905250611130565b604051806040016040528084838151811061105d5761105c6122c7565b5b602002602001015173ffffffffffffffffffffffffffffffffffffffff166395d89b416040518163ffffffff1660e01b8152600401600060405180830381865afa1580156110af573d6000803e3d6000fd5b505050506040513d6000823e3d601f19601f820116820180604052508101906110d8919061239c565b81526020018483815181106110f0576110ef6122c7565b5b602002602001015173ffffffffffffffffffffffffffffffffffffffff16815250828281518110611124576111236122c7565b5b60200260200101819052505b808061113b90612414565b915050610e3a565b5080935050505090565b6000806000807f000000000000000000000000000000000000000000000000000000000000000073ffffffffffffffffffffffffffffffffffffffff16630261bf8b6040518163ffffffff1660e01b8152600401602060405180830381865afa1580156111be573d6000803e3d6000fd5b505050506040513d601f19601f820116820180604052508101906111e29190611d94565b73ffffffffffffffffffffffffffffffffffffffff166335ea6a75866040518263ffffffff1660e01b815260040161121a9190611dc1565b61018060405180830381865afa158015611238573d6000803e3d6000fd5b505050506040513d601f19601f8201168201806040525081019061125c9190612093565b90508060e00151816101000151826101200151935093509350509193909250565b606060007f000000000000000000000000000000000000000000000000000000000000000073ffffffffffffffffffffffffffffffffffffffff16630261bf8b6040518163ffffffff1660e01b8152600401602060405180830381865afa1580156112ec573d6000803e3d6000fd5b505050506040513d601f19601f820116820180604052508101906113109190611d94565b905060008173ffffffffffffffffffffffffffffffffffffffff1663d1946dbc6040518163ffffffff1660e01b8152600401600060405180830381865afa15801561135f573d6000803e3d6000fd5b505050506040513d6000823e3d601f19601f82011682018060405250810190611388919061227e565b90506000815167ffffffffffffffff8111156113a7576113a6611de1565b5b6040519080825280602002602001820160405280156113e057816020015b6113cd6117ce565b8152602001906001900390816113c55790505b50905060005b82518110156115605760008473ffffffffffffffffffffffffffffffffffffffff166335ea6a758584815181106114205761141f6122c7565b5b60200260200101516040518263ffffffff1660e01b81526004016114449190611dc1565b61018060405180830381865afa158015611462573d6000803e3d6000fd5b505050506040513d601f19601f820116820180604052508101906114869190612093565b905060405180604001604052808260e0015173ffffffffffffffffffffffffffffffffffffffff166395d89b416040518163ffffffff1660e01b8152600401600060405180830381865afa1580156114e2573d6000803e3d6000fd5b505050506040513d6000823e3d601f19601f8201168201806040525081019061150b919061239c565b81526020018260e0015173ffffffffffffffffffffffffffffffffffffffff16815250838381518110611541576115406122c7565b5b602002602001018190525050808061155890612414565b9150506113e6565b5080935050505090565b6000608082106040518060400160405280600281526020017f3737000000000000000000000000000000000000000000000000000000000000815250906115e7576040517f08c379a00000000000000000000000000000000000000000000000000000000081526004016115de91906124a6565b60405180910390fd5b5060006001806002856115fa91906124c8565b6116049190612522565b8560000151901c161415905092915050565b60008060008060007fffffffffffffffffffffffffffffffffffffffffffffffffffffffffffff00001986600001511660107fffffffffffffffffffffffffffffffffffffffffffffffffffffffff0000ffff19886000015116901c60207fffffffffffffffffffffffffffffffffffffffffffffffffffff0000ffffffff19896000015116901c60307fffffffffffffffffffffffffffffffffffffffffffffffffff00ffffffffffff198a6000015116901c60407fffffffffffffffffffffffffffffffffffffffffffff0000ffffffffffffffff198b6000015116901c9450945094509450945091939590929450565b60008060008060007ffffffffffffffffffffffffffffffffffffffffffffffffffeffffffffffffff19866000015116141560007ffffffffffffffffffffffffffffffffffffffffffffffffffdffffffffffffff19876000015116141560007ffffffffffffffffffffffffffffffffffffffffffffffffffbffffffffffffff19886000015116141560007ffffffffffffffffffffffffffffffffffffffffffffffffff7ffffffffffffff19896000015116141593509350935093509193509193565b604051806040016040528060608152602001600073ffffffffffffffffffffffffffffffffffffffff1681525090565b600073ffffffffffffffffffffffffffffffffffffffff82169050919050565b6000819050919050565b600061184361183e611839846117fe565b61181e565b6117fe565b9050919050565b600061185582611828565b9050919050565b60006118678261184a565b9050919050565b6118778161185c565b82525050565b6000602082019050611892600083018461186e565b92915050565b6000604051905090565b600080fd5b600080fd5b60006118b7826117fe565b9050919050565b6118c7816118ac565b81146118d257600080fd5b50565b6000813590506118e4816118be565b92915050565b60008060408385031215611901576119006118a2565b5b600061190f858286016118d5565b9250506020611920858286016118d5565b9150509250929050565b6000819050919050565b61193d8161192a565b82525050565b600064ffffffffff82169050919050565b61195d81611943565b82525050565b60008115159050919050565b61197881611963565b82525050565b600061012082019050611994600083018c611934565b6119a1602083018b611934565b6119ae604083018a611934565b6119bb6060830189611934565b6119c86080830188611934565b6119d560a0830187611934565b6119e260c0830186611934565b6119ef60e0830185611954565b6119fd61010083018461196f565b9a9950505050505050505050565b600060208284031215611a2157611a206118a2565b5b6000611a2f848285016118d5565b91505092915050565b600061014082019050611a4e600083018d611934565b611a5b602083018c611934565b611a68604083018b611934565b611a75606083018a611934565b611a826080830189611934565b611a8f60a0830188611934565b611a9c60c0830187611934565b611aa960e0830186611934565b611ab7610100830185611934565b611ac5610120830184611954565b9b9a5050505050505050505050565b600061014082019050611aea600083018d611934565b611af7602083018c611934565b611b04604083018b611934565b611b11606083018a611934565b611b1e6080830189611934565b611b2b60a083018861196f565b611b3860c083018761196f565b611b4560e083018661196f565b611b5361010083018561196f565b611b6161012083018461196f565b9b9a5050505050505050505050565b600081519050919050565b600082825260208201905092915050565b6000819050602082019050919050565b600081519050919050565b600082825260208201905092915050565b60005b83811015611bd6578082015181840152602081019050611bbb565b83811115611be5576000848401525b50505050565b6000601f19601f8301169050919050565b6000611c0782611b9c565b611c118185611ba7565b9350611c21818560208601611bb8565b611c2a81611beb565b840191505092915050565b611c3e816118ac565b82525050565b60006040830160008301518482036000860152611c618282611bfc565b9150506020830151611c766020860182611c35565b508091505092915050565b6000611c8d8383611c44565b905092915050565b6000602082019050919050565b6000611cad82611b70565b611cb78185611b7b565b935083602082028501611cc985611b8c565b8060005b85811015611d055784840389528151611ce68582611c81565b9450611cf183611c95565b925060208a01995050600181019050611ccd565b50829750879550505050505092915050565b60006020820190508181036000830152611d318184611ca2565b905092915050565b611d42816118ac565b82525050565b6000606082019050611d5d6000830186611d39565b611d6a6020830185611d39565b611d776040830184611d39565b949350505050565b600081519050611d8e816118be565b92915050565b600060208284031215611daa57611da96118a2565b5b6000611db884828501611d7f565b91505092915050565b6000602082019050611dd66000830184611d39565b92915050565b600080fd5b7f4e487b7100000000000000000000000000000000000000000000000000000000600052604160045260246000fd5b611e1982611beb565b810181811067ffffffffffffffff82111715611e3857611e37611de1565b5b80604052505050565b6000611e4b611898565b9050611e578282611e10565b919050565b611e658161192a565b8114611e7057600080fd5b50565b600081519050611e8281611e5c565b92915050565b600060208284031215611e9e57611e9d611ddc565b5b611ea86020611e41565b90506000611eb884828501611e73565b60008301525092915050565b60006fffffffffffffffffffffffffffffffff82169050919050565b611ee981611ec4565b8114611ef457600080fd5b50565b600081519050611f0681611ee0565b92915050565b611f1581611943565b8114611f2057600080fd5b50565b600081519050611f3281611f0c565b92915050565b600060ff82169050919050565b611f4e81611f38565b8114611f5957600080fd5b50565b600081519050611f6b81611f45565b92915050565b60006101808284031215611f8857611f87611ddc565b5b611f93610180611e41565b90506000611fa384828501611e88565b6000830152506020611fb784828501611ef7565b6020830152506040611fcb84828501611ef7565b6040830152506060611fdf84828501611ef7565b6060830152506080611ff384828501611ef7565b60808301525060a061200784828501611ef7565b60a08301525060c061201b84828501611f23565b60c08301525060e061202f84828501611d7f565b60e08301525061010061204484828501611d7f565b6101008301525061012061205a84828501611d7f565b6101208301525061014061207084828501611d7f565b6101408301525061016061208684828501611f5c565b6101608301525092915050565b600061018082840312156120aa576120a96118a2565b5b60006120b884828501611f71565b91505092915050565b6000602082840312156120d7576120d6611ddc565b5b6120e16020611e41565b905060006120f184828501611e73565b60008301525092915050565b600060208284031215612113576121126118a2565b5b6000612121848285016120c1565b91505092915050565b6000602082840312156121405761213f6118a2565b5b600061214e84828501611e73565b91505092915050565b60006020828403121561216d5761216c6118a2565b5b600061217b84828501611f23565b91505092915050565b60006020828403121561219a576121996118a2565b5b60006121a884828501611e88565b91505092915050565b600080fd5b600067ffffffffffffffff8211156121d1576121d0611de1565b5b602082029050602081019050919050565b600080fd5b60006121fa6121f5846121b6565b611e41565b9050808382526020820190506020840283018581111561221d5761221c6121e2565b5b835b8181101561224657806122328882611d7f565b84526020840193505060208101905061221f565b5050509392505050565b600082601f830112612265576122646121b1565b5b81516122758482602086016121e7565b91505092915050565b600060208284031215612294576122936118a2565b5b600082015167ffffffffffffffff8111156122b2576122b16118a7565b5b6122be84828501612250565b91505092915050565b7f4e487b7100000000000000000000000000000000000000000000000000000000600052603260045260246000fd5b600080fd5b600067ffffffffffffffff82111561231657612315611de1565b5b61231f82611beb565b9050602081019050919050565b600061233f61233a846122fb565b611e41565b90508281526020810184848401111561235b5761235a6122f6565b5b612366848285611bb8565b509392505050565b600082601f830112612383576123826121b1565b5b815161239384826020860161232c565b91505092915050565b6000602082840312156123b2576123b16118a2565b5b600082015167ffffffffffffffff8111156123d0576123cf6118a7565b5b6123dc8482850161236e565b91505092915050565b7f4e487b7100000000000000000000000000000000000000000000000000000000600052601160045260246000fd5b600061241f8261192a565b91507fffffffffffffffffffffffffffffffffffffffffffffffffffffffffffffffff8203612451576124506123e5565b5b600182019050919050565b600082825260208201905092915050565b600061247882611b9c565b612482818561245c565b9350612492818560208601611bb8565b61249b81611beb565b840191505092915050565b600060208201905081810360008301526124c0818461246d565b905092915050565b60006124d38261192a565b91506124de8361192a565b9250817fffffffffffffffffffffffffffffffffffffffffffffffffffffffffffffffff0483118215151615612517576125166123e5565b5b828202905092915050565b600061252d8261192a565b91506125388361192a565b9250827fffffffffffffffffffffffffffffffffffffffffffffffffffffffffffffffff0382111561256d5761256c6123e5565b5b82820190509291505056fea264697066735822122028a79face47124bcf5098eaae40688f75b0e02e5874e162fc635f3825ab7e28464736f6c634300080d0033",
  "immutableReferences": {
    "6026": [
      {
        "length": 32,
        "start": 442
      },
      {
        "length": 32,
        "start": 493
      },
      {
        "length": 32,
        "start": 762
      },
      {
        "length": 32,
        "start": 2016
      },
      {
        "length": 32,
        "start": 2943
      },
      {
        "length": 32,
        "start": 3287
      },
      {
        "length": 32,
        "start": 4437
      },
      {
        "length": 32,
        "start": 4739
      }
    ]
  },
  "source": "/**\n *Submitted for verification at Etherscan.io on 2021-01-12\n*/\n\n// SPDX-License-Identifier: agpl-3.0\npragma solidity >=0.4.22 <0.9.0;\npragma experimental ABIEncoderV2;\n\nimport \"@openzeppelin/contracts/token/ERC20/ERC20.sol\";\nimport \"@openzeppelin/contracts/token/ERC20/IERC20.sol\";\n\n\ninterface IERC20Detailed is IERC20 {\n  function name() external view returns (string memory);\n\n  function symbol() external view returns (string memory);\n\n  function decimals() external view returns (uint8);\n}\n\n/**\n * @title LendingPoolAddressesProvider contract\n * @dev Main registry of addresses part of or connected to the protocol, including permissioned roles\n * - Acting also as factory of proxies and admin of those, so with right to change its implementations\n * - Owned by the Aave Governance\n * @author Aave\n **/\ninterface ILendingPoolAddressesProvider {\n  event MarketIdSet(string newMarketId);\n  event LendingPoolUpdated(address indexed newAddress);\n  event ConfigurationAdminUpdated(address indexed newAddress);\n  event EmergencyAdminUpdated(address indexed newAddress);\n  event LendingPoolConfiguratorUpdated(address indexed newAddress);\n  event LendingPoolCollateralManagerUpdated(address indexed newAddress);\n  event PriceOracleUpdated(address indexed newAddress);\n  event LendingRateOracleUpdated(address indexed newAddress);\n  event ProxyCreated(bytes32 id, address indexed newAddress);\n  event AddressSet(bytes32 id, address indexed newAddress, bool hasProxy);\n\n  function getMarketId() external view returns (string memory);\n\n  function setMarketId(string calldata marketId) external;\n\n  function setAddress(bytes32 id, address newAddress) external;\n\n  function setAddressAsProxy(bytes32 id, address impl) external;\n\n  function getAddress(bytes32 id) external view returns (address);\n\n  function getLendingPool() external view returns (address);\n\n  function setLendingPoolImpl(address pool) external;\n\n  function getLendingPoolConfigurator() external view returns (address);\n\n  function setLendingPoolConfiguratorImpl(address configurator) external;\n\n  function getLendingPoolCollateralManager() external view returns (address);\n\n  function setLendingPoolCollateralManager(address manager) external;\n\n  function getPoolAdmin() external view returns (address);\n\n  function setPoolAdmin(address admin) external;\n\n  function getEmergencyAdmin() external view returns (address);\n\n  function setEmergencyAdmin(address admin) external;\n\n  function getPriceOracle() external view returns (address);\n\n  function setPriceOracle(address priceOracle) external;\n\n  function getLendingRateOracle() external view returns (address);\n\n  function setLendingRateOracle(address lendingRateOracle) external;\n}\n\nlibrary DataTypes {\n  // refer to the whitepaper, section 1.1 basic concepts for a formal description of these properties.\n  struct ReserveData {\n    //stores the reserve configuration\n    ReserveConfigurationMap configuration;\n    //the liquidity index. Expressed in ray\n    uint128 liquidityIndex;\n    //variable borrow index. Expressed in ray\n    uint128 variableBorrowIndex;\n    //the current supply rate. Expressed in ray\n    uint128 currentLiquidityRate;\n    //the current variable borrow rate. Expressed in ray\n    uint128 currentVariableBorrowRate;\n    //the current stable borrow rate. Expressed in ray\n    uint128 currentStableBorrowRate;\n    uint40 lastUpdateTimestamp;\n    //tokens addresses\n    address aTokenAddress;\n    address stableDebtTokenAddress;\n    address variableDebtTokenAddress;\n    //address of the interest rate strategy\n    address interestRateStrategyAddress;\n    //the id of the reserve. Represents the position in the list of the active reserves\n    uint8 id;\n  }\n\n  struct ReserveConfigurationMap {\n    //bit 0-15: LTV\n    //bit 16-31: Liq. threshold\n    //bit 32-47: Liq. bonus\n    //bit 48-55: Decimals\n    //bit 56: Reserve is active\n    //bit 57: reserve is frozen\n    //bit 58: borrowing is enabled\n    //bit 59: stable rate borrowing enabled\n    //bit 60-63: reserved\n    //bit 64-79: reserve factor\n    uint256 data;\n  }\n\n  struct UserConfigurationMap {\n    uint256 data;\n  }\n\n  enum InterestRateMode {NONE, STABLE, VARIABLE}\n}\n\ninterface ILendingPool {\n  /**\n   * @dev Emitted on deposit()\n   * @param reserve The address of the underlying asset of the reserve\n   * @param user The address initiating the deposit\n   * @param onBehalfOf The beneficiary of the deposit, receiving the aTokens\n   * @param amount The amount deposited\n   * @param referral The referral code used\n   **/\n  event Deposit(\n    address indexed reserve,\n    address user,\n    address indexed onBehalfOf,\n    uint256 amount,\n    uint16 indexed referral\n  );\n\n  /**\n   * @dev Emitted on withdraw()\n   * @param reserve The address of the underlyng asset being withdrawn\n   * @param user The address initiating the withdrawal, owner of aTokens\n   * @param to Address that will receive the underlying\n   * @param amount The amount to be withdrawn\n   **/\n  event Withdraw(address indexed reserve, address indexed user, address indexed to, uint256 amount);\n\n  /**\n   * @dev Emitted on borrow() and flashLoan() when debt needs to be opened\n   * @param reserve The address of the underlying asset being borrowed\n   * @param user The address of the user initiating the borrow(), receiving the funds on borrow() or just\n   * initiator of the transaction on flashLoan()\n   * @param onBehalfOf The address that will be getting the debt\n   * @param amount The amount borrowed out\n   * @param borrowRateMode The rate mode: 1 for Stable, 2 for Variable\n   * @param borrowRate The numeric rate at which the user has borrowed\n   * @param referral The referral code used\n   **/\n  event Borrow(\n    address indexed reserve,\n    address user,\n    address indexed onBehalfOf,\n    uint256 amount,\n    uint256 borrowRateMode,\n    uint256 borrowRate,\n    uint16 indexed referral\n  );\n\n  /**\n   * @dev Emitted on repay()\n   * @param reserve The address of the underlying asset of the reserve\n   * @param user The beneficiary of the repayment, getting his debt reduced\n   * @param repayer The address of the user initiating the repay(), providing the funds\n   * @param amount The amount repaid\n   **/\n  event Repay(\n    address indexed reserve,\n    address indexed user,\n    address indexed repayer,\n    uint256 amount\n  );\n\n  /**\n   * @dev Emitted on swapBorrowRateMode()\n   * @param reserve The address of the underlying asset of the reserve\n   * @param user The address of the user swapping his rate mode\n   * @param rateMode The rate mode that the user wants to swap to\n   **/\n  event Swap(address indexed reserve, address indexed user, uint256 rateMode);\n\n  /**\n   * @dev Emitted on setUserUseReserveAsCollateral()\n   * @param reserve The address of the underlying asset of the reserve\n   * @param user The address of the user enabling the usage as collateral\n   **/\n  event ReserveUsedAsCollateralEnabled(address indexed reserve, address indexed user);\n\n  /**\n   * @dev Emitted on setUserUseReserveAsCollateral()\n   * @param reserve The address of the underlying asset of the reserve\n   * @param user The address of the user enabling the usage as collateral\n   **/\n  event ReserveUsedAsCollateralDisabled(address indexed reserve, address indexed user);\n\n  /**\n   * @dev Emitted on rebalanceStableBorrowRate()\n   * @param reserve The address of the underlying asset of the reserve\n   * @param user The address of the user for which the rebalance has been executed\n   **/\n  event RebalanceStableBorrowRate(address indexed reserve, address indexed user);\n\n  /**\n   * @dev Emitted on flashLoan()\n   * @param target The address of the flash loan receiver contract\n   * @param initiator The address initiating the flash loan\n   * @param asset The address of the asset being flash borrowed\n   * @param amount The amount flash borrowed\n   * @param premium The fee flash borrowed\n   * @param referralCode The referral code used\n   **/\n  event FlashLoan(\n    address indexed target,\n    address indexed initiator,\n    address indexed asset,\n    uint256 amount,\n    uint256 premium,\n    uint16 referralCode\n  );\n\n  /**\n   * @dev Emitted when the pause is triggered.\n   */\n  event Paused();\n\n  /**\n   * @dev Emitted when the pause is lifted.\n   */\n  event Unpaused();\n\n  /**\n   * @dev Emitted when a borrower is liquidated. This event is emitted by the LendingPool via\n   * LendingPoolCollateral manager using a DELEGATECALL\n   * This allows to have the events in the generated ABI for LendingPool.\n   * @param collateralAsset The address of the underlying asset used as collateral, to receive as result of the liquidation\n   * @param debtAsset The address of the underlying borrowed asset to be repaid with the liquidation\n   * @param user The address of the borrower getting liquidated\n   * @param debtToCover The debt amount of borrowed `asset` the liquidator wants to cover\n   * @param liquidatedCollateralAmount The amount of collateral received by the liiquidator\n   * @param liquidator The address of the liquidator\n   * @param receiveAToken `true` if the liquidators wants to receive the collateral aTokens, `false` if he wants\n   * to receive the underlying collateral asset directly\n   **/\n  event LiquidationCall(\n    address indexed collateralAsset,\n    address indexed debtAsset,\n    address indexed user,\n    uint256 debtToCover,\n    uint256 liquidatedCollateralAmount,\n    address liquidator,\n    bool receiveAToken\n  );\n\n  /**\n   * @dev Emitted when the state of a reserve is updated. NOTE: This event is actually declared\n   * in the ReserveLogic library and emitted in the updateInterestRates() function. Since the function is internal,\n   * the event will actually be fired by the LendingPool contract. The event is therefore replicated here so it\n   * gets added to the LendingPool ABI\n   * @param reserve The address of the underlying asset of the reserve\n   * @param liquidityRate The new liquidity rate\n   * @param stableBorrowRate The new stable borrow rate\n   * @param variableBorrowRate The new variable borrow rate\n   * @param liquidityIndex The new liquidity index\n   * @param variableBorrowIndex The new variable borrow index\n   **/\n  event ReserveDataUpdated(\n    address indexed reserve,\n    uint256 liquidityRate,\n    uint256 stableBorrowRate,\n    uint256 variableBorrowRate,\n    uint256 liquidityIndex,\n    uint256 variableBorrowIndex\n  );\n\n  /**\n   * @dev Deposits an `amount` of underlying asset into the reserve, receiving in return overlying aTokens.\n   * - E.g. User deposits 100 USDC and gets in return 100 aUSDC\n   * @param asset The address of the underlying asset to deposit\n   * @param amount The amount to be deposited\n   * @param onBehalfOf The address that will receive the aTokens, same as msg.sender if the user\n   *   wants to receive them on his own wallet, or a different address if the beneficiary of aTokens\n   *   is a different wallet\n   * @param referralCode Code used to register the integrator originating the operation, for potential rewards.\n   *   0 if the action is executed directly by the user, without any middle-man\n   **/\n  function deposit(\n    address asset,\n    uint256 amount,\n    address onBehalfOf,\n    uint16 referralCode\n  ) external;\n\n  /**\n   * @dev Withdraws an `amount` of underlying asset from the reserve, burning the equivalent aTokens owned\n   * E.g. User has 100 aUSDC, calls withdraw() and receives 100 USDC, burning the 100 aUSDC\n   * @param asset The address of the underlying asset to withdraw\n   * @param amount The underlying amount to be withdrawn\n   *   - Send the value type(uint256).max in order to withdraw the whole aToken balance\n   * @param to Address that will receive the underlying, same as msg.sender if the user\n   *   wants to receive it on his own wallet, or a different address if the beneficiary is a\n   *   different wallet\n   * @return The final amount withdrawn\n   **/\n  function withdraw(\n    address asset,\n    uint256 amount,\n    address to\n  ) external returns (uint256);\n\n  /**\n   * @dev Allows users to borrow a specific `amount` of the reserve underlying asset, provided that the borrower\n   * already deposited enough collateral, or he was given enough allowance by a credit delegator on the\n   * corresponding debt token (StableDebtToken or VariableDebtToken)\n   * - E.g. User borrows 100 USDC passing as `onBehalfOf` his own address, receiving the 100 USDC in his wallet\n   *   and 100 stable/variable debt tokens, depending on the `interestRateMode`\n   * @param asset The address of the underlying asset to borrow\n   * @param amount The amount to be borrowed\n   * @param interestRateMode The interest rate mode at which the user wants to borrow: 1 for Stable, 2 for Variable\n   * @param referralCode Code used to register the integrator originating the operation, for potential rewards.\n   *   0 if the action is executed directly by the user, without any middle-man\n   * @param onBehalfOf Address of the user who will receive the debt. Should be the address of the borrower itself\n   * calling the function if he wants to borrow against his own collateral, or the address of the credit delegator\n   * if he has been given credit delegation allowance\n   **/\n  function borrow(\n    address asset,\n    uint256 amount,\n    uint256 interestRateMode,\n    uint16 referralCode,\n    address onBehalfOf\n  ) external;\n\n  /**\n   * @notice Repays a borrowed `amount` on a specific reserve, burning the equivalent debt tokens owned\n   * - E.g. User repays 100 USDC, burning 100 variable/stable debt tokens of the `onBehalfOf` address\n   * @param asset The address of the borrowed underlying asset previously borrowed\n   * @param amount The amount to repay\n   * - Send the value type(uint256).max in order to repay the whole debt for `asset` on the specific `debtMode`\n   * @param rateMode The interest rate mode at of the debt the user wants to repay: 1 for Stable, 2 for Variable\n   * @param onBehalfOf Address of the user who will get his debt reduced/removed. Should be the address of the\n   * user calling the function if he wants to reduce/remove his own debt, or the address of any other\n   * other borrower whose debt should be removed\n   * @return The final amount repaid\n   **/\n  function repay(\n    address asset,\n    uint256 amount,\n    uint256 rateMode,\n    address onBehalfOf\n  ) external returns (uint256);\n\n  /**\n   * @dev Allows a borrower to swap his debt between stable and variable mode, or viceversa\n   * @param asset The address of the underlying asset borrowed\n   * @param rateMode The rate mode that the user wants to swap to\n   **/\n  function swapBorrowRateMode(address asset, uint256 rateMode) external;\n\n  /**\n   * @dev Rebalances the stable interest rate of a user to the current stable rate defined on the reserve.\n   * - Users can be rebalanced if the following conditions are satisfied:\n   *     1. Usage ratio is above 95%\n   *     2. the current deposit APY is below REBALANCE_UP_THRESHOLD * maxVariableBorrowRate, which means that too much has been\n   *        borrowed at a stable rate and depositors are not earning enough\n   * @param asset The address of the underlying asset borrowed\n   * @param user The address of the user to be rebalanced\n   **/\n  function rebalanceStableBorrowRate(address asset, address user) external;\n\n  /**\n   * @dev Allows depositors to enable/disable a specific deposited asset as collateral\n   * @param asset The address of the underlying asset deposited\n   * @param useAsCollateral `true` if the user wants to use the deposit as collateral, `false` otherwise\n   **/\n  function setUserUseReserveAsCollateral(address asset, bool useAsCollateral) external;\n\n  /**\n   * @dev Function to liquidate a non-healthy position collateral-wise, with Health Factor below 1\n   * - The caller (liquidator) covers `debtToCover` amount of debt of the user getting liquidated, and receives\n   *   a proportionally amount of the `collateralAsset` plus a bonus to cover market risk\n   * @param collateralAsset The address of the underlying asset used as collateral, to receive as result of the liquidation\n   * @param debtAsset The address of the underlying borrowed asset to be repaid with the liquidation\n   * @param user The address of the borrower getting liquidated\n   * @param debtToCover The debt amount of borrowed `asset` the liquidator wants to cover\n   * @param receiveAToken `true` if the liquidators wants to receive the collateral aTokens, `false` if he wants\n   * to receive the underlying collateral asset directly\n   **/\n  function liquidationCall(\n    address collateralAsset,\n    address debtAsset,\n    address user,\n    uint256 debtToCover,\n    bool receiveAToken\n  ) external;\n\n  /**\n   * @dev Allows smartcontracts to access the liquidity of the pool within one transaction,\n   * as long as the amount taken plus a fee is returned.\n   * IMPORTANT There are security concerns for developers of flashloan receiver contracts that must be kept into consideration.\n   * For further details please visit https://developers.aave.com\n   * @param receiverAddress The address of the contract receiving the funds, implementing the IFlashLoanReceiver interface\n   * @param assets The addresses of the assets being flash-borrowed\n   * @param amounts The amounts amounts being flash-borrowed\n   * @param modes Types of the debt to open if the flash loan is not returned:\n   *   0 -> Don't open any debt, just revert if funds can't be transferred from the receiver\n   *   1 -> Open debt at stable rate for the value of the amount flash-borrowed to the `onBehalfOf` address\n   *   2 -> Open debt at variable rate for the value of the amount flash-borrowed to the `onBehalfOf` address\n   * @param onBehalfOf The address  that will receive the debt in the case of using on `modes` 1 or 2\n   * @param params Variadic packed params to pass to the receiver as extra information\n   * @param referralCode Code used to register the integrator originating the operation, for potential rewards.\n   *   0 if the action is executed directly by the user, without any middle-man\n   **/\n  function flashLoan(\n    address receiverAddress,\n    address[] calldata assets,\n    uint256[] calldata amounts,\n    uint256[] calldata modes,\n    address onBehalfOf,\n    bytes calldata params,\n    uint16 referralCode\n  ) external;\n\n  /**\n   * @dev Returns the user account data across all the reserves\n   * @param user The address of the user\n   * @return totalCollateralETH the total collateral in ETH of the user\n   * @return totalDebtETH the total debt in ETH of the user\n   * @return availableBorrowsETH the borrowing power left of the user\n   * @return currentLiquidationThreshold the liquidation threshold of the user\n   * @return ltv the loan to value of the user\n   * @return healthFactor the current health factor of the user\n   **/\n  function getUserAccountData(address user)\n    external\n    view\n    returns (\n      uint256 totalCollateralETH,\n      uint256 totalDebtETH,\n      uint256 availableBorrowsETH,\n      uint256 currentLiquidationThreshold,\n      uint256 ltv,\n      uint256 healthFactor\n    );\n\n  function initReserve(\n    address reserve,\n    address aTokenAddress,\n    address stableDebtAddress,\n    address variableDebtAddress,\n    address interestRateStrategyAddress\n  ) external;\n\n  function setReserveInterestRateStrategyAddress(address reserve, address rateStrategyAddress)\n    external;\n\n  function setConfiguration(address reserve, uint256 configuration) external;\n\n  /**\n   * @dev Returns the configuration of the reserve\n   * @param asset The address of the underlying asset of the reserve\n   * @return The configuration of the reserve\n   **/\n  function getConfiguration(address asset)\n    external\n    view\n    returns (DataTypes.ReserveConfigurationMap memory);\n\n  /**\n   * @dev Returns the configuration of the user across all the reserves\n   * @param user The user address\n   * @return The configuration of the user\n   **/\n  function getUserConfiguration(address user)\n    external\n    view\n    returns (DataTypes.UserConfigurationMap memory);\n\n  /**\n   * @dev Returns the normalized income normalized income of the reserve\n   * @param asset The address of the underlying asset of the reserve\n   * @return The reserve's normalized income\n   */\n  function getReserveNormalizedIncome(address asset) external view returns (uint256);\n\n  /**\n   * @dev Returns the normalized variable debt per unit of asset\n   * @param asset The address of the underlying asset of the reserve\n   * @return The reserve normalized variable debt\n   */\n  function getReserveNormalizedVariableDebt(address asset) external view returns (uint256);\n\n  /**\n   * @dev Returns the state and configuration of the reserve\n   * @param asset The address of the underlying asset of the reserve\n   * @return The state of the reserve\n   **/\n  function getReserveData(address asset) external view returns (DataTypes.ReserveData memory);\n\n  function finalizeTransfer(\n    address asset,\n    address from,\n    address to,\n    uint256 amount,\n    uint256 balanceFromAfter,\n    uint256 balanceToBefore\n  ) external;\n\n  function getReservesList() external view returns (address[] memory);\n\n  function getAddressesProvider() external view returns (ILendingPoolAddressesProvider);\n\n  function setPause(bool val) external;\n\n  function paused() external view returns (bool);\n}\n\n/**\n * @title IStableDebtToken\n * @notice Defines the interface for the stable debt token\n * @dev It does not inherit from IERC20 to save in code size\n * @author Aave\n **/\n\ninterface IStableDebtToken {\n  /**\n   * @dev Emitted when new stable debt is minted\n   * @param user The address of the user who triggered the minting\n   * @param onBehalfOf The recipient of stable debt tokens\n   * @param amount The amount minted\n   * @param currentBalance The current balance of the user\n   * @param balanceIncrease The increase in balance since the last action of the user\n   * @param newRate The rate of the debt after the minting\n   * @param avgStableRate The new average stable rate after the minting\n   * @param newTotalSupply The new total supply of the stable debt token after the action\n   **/\n  event Mint(\n    address indexed user,\n    address indexed onBehalfOf,\n    uint256 amount,\n    uint256 currentBalance,\n    uint256 balanceIncrease,\n    uint256 newRate,\n    uint256 avgStableRate,\n    uint256 newTotalSupply\n  );\n\n  /**\n   * @dev Emitted when new stable debt is burned\n   * @param user The address of the user\n   * @param amount The amount being burned\n   * @param currentBalance The current balance of the user\n   * @param balanceIncrease The the increase in balance since the last action of the user\n   * @param avgStableRate The new average stable rate after the burning\n   * @param newTotalSupply The new total supply of the stable debt token after the action\n   **/\n  event Burn(\n    address indexed user,\n    uint256 amount,\n    uint256 currentBalance,\n    uint256 balanceIncrease,\n    uint256 avgStableRate,\n    uint256 newTotalSupply\n  );\n\n  /**\n   * @dev Mints debt token to the `onBehalfOf` address.\n   * - The resulting rate is the weighted average between the rate of the new debt\n   * and the rate of the previous debt\n   * @param user The address receiving the borrowed underlying, being the delegatee in case\n   * of credit delegate, or same as `onBehalfOf` otherwise\n   * @param onBehalfOf The address receiving the debt tokens\n   * @param amount The amount of debt tokens to mint\n   * @param rate The rate of the debt being minted\n   **/\n  function mint(\n    address user,\n    address onBehalfOf,\n    uint256 amount,\n    uint256 rate\n  ) external returns (bool);\n\n  /**\n   * @dev Burns debt of `user`\n   * - The resulting rate is the weighted average between the rate of the new debt\n   * and the rate of the previous debt\n   * @param user The address of the user getting his debt burned\n   * @param amount The amount of debt tokens getting burned\n   **/\n  function burn(address user, uint256 amount) external;\n\n  /**\n   * @dev Returns the average rate of all the stable rate loans.\n   * @return The average stable rate\n   **/\n  function getAverageStableRate() external view returns (uint256);\n\n  /**\n   * @dev Returns the stable rate of the user debt\n   * @return The stable rate of the user\n   **/\n  function getUserStableRate(address user) external view returns (uint256);\n\n  /**\n   * @dev Returns the timestamp of the last update of the user\n   * @return The timestamp\n   **/\n  function getUserLastUpdated(address user) external view returns (uint40);\n\n  /**\n   * @dev Returns the principal, the total supply and the average stable rate\n   **/\n  function getSupplyData()\n    external\n    view\n    returns (\n      uint256,\n      uint256,\n      uint256,\n      uint40\n    );\n\n  /**\n   * @dev Returns the timestamp of the last update of the total supply\n   * @return The timestamp\n   **/\n  function getTotalSupplyLastUpdated() external view returns (uint40);\n\n  /**\n   * @dev Returns the total supply and the average stable rate\n   **/\n  function getTotalSupplyAndAvgRate() external view returns (uint256, uint256);\n\n  /**\n   * @dev Returns the principal debt balance of the user\n   * @return The debt balance of the user since the last burn/mint action\n   **/\n  function principalBalanceOf(address user) external view returns (uint256);\n}\n\ninterface IScaledBalanceToken {\n  /**\n   * @dev Returns the scaled balance of the user. The scaled balance is the sum of all the\n   * updated stored balance divided by the reserve's liquidity index at the moment of the update\n   * @param user The user whose balance is calculated\n   * @return The scaled balance of the user\n   **/\n  function scaledBalanceOf(address user) external view returns (uint256);\n\n  /**\n   * @dev Returns the scaled balance of the user and the scaled total supply.\n   * @param user The address of the user\n   * @return The scaled balance of the user\n   * @return The scaled balance and the scaled total supply\n   **/\n  function getScaledUserBalanceAndSupply(address user) external view returns (uint256, uint256);\n\n  /**\n   * @dev Returns the scaled total supply of the variable debt token. Represents sum(debt/index)\n   * @return The scaled total supply\n   **/\n  function scaledTotalSupply() external view returns (uint256);\n}\n\n/**\n * @title IVariableDebtToken\n * @author Aave\n * @notice Defines the basic interface for a variable debt token.\n **/\ninterface IVariableDebtToken is IScaledBalanceToken {\n  /**\n   * @dev Emitted after the mint action\n   * @param from The address performing the mint\n   * @param onBehalfOf The address of the user on which behalf minting has been performed\n   * @param value The amount to be minted\n   * @param index The last index of the reserve\n   **/\n  event Mint(address indexed from, address indexed onBehalfOf, uint256 value, uint256 index);\n\n  /**\n   * @dev Mints debt token to the `onBehalfOf` address\n   * @param user The address receiving the borrowed underlying, being the delegatee in case\n   * of credit delegate, or same as `onBehalfOf` otherwise\n   * @param onBehalfOf The address receiving the debt tokens\n   * @param amount The amount of debt being minted\n   * @param index The variable debt index of the reserve\n   * @return `true` if the the previous balance of the user is 0\n   **/\n  function mint(\n    address user,\n    address onBehalfOf,\n    uint256 amount,\n    uint256 index\n  ) external returns (bool);\n\n  /**\n   * @dev Emitted when variable debt is burnt\n   * @param user The user which debt has been burned\n   * @param amount The amount of debt being burned\n   * @param index The index of the user\n   **/\n  event Burn(address indexed user, uint256 amount, uint256 index);\n\n  /**\n   * @dev Burns user variable debt\n   * @param user The user which debt is burnt\n   * @param index The variable debt index of the reserve\n   **/\n  function burn(\n    address user,\n    uint256 amount,\n    uint256 index\n  ) external;\n}\n\n/**\n * @title Errors library\n * @author Aave\n * @notice Defines the error messages emitted by the different contracts of the Aave protocol\n * @dev Error messages prefix glossary:\n *  - VL = ValidationLogic\n *  - MATH = Math libraries\n *  - CT = Common errors between tokens (AToken, VariableDebtToken and StableDebtToken)\n *  - AT = AToken\n *  - SDT = StableDebtToken\n *  - VDT = VariableDebtToken\n *  - LP = LendingPool\n *  - LPAPR = LendingPoolAddressesProviderRegistry\n *  - LPC = LendingPoolConfiguration\n *  - RL = ReserveLogic\n *  - LPCM = LendingPoolCollateralManager\n *  - P = Pausable\n */\nlibrary Errors {\n  //common errors\n  string public constant CALLER_NOT_POOL_ADMIN = '33'; // 'The caller must be the pool admin'\n  string public constant BORROW_ALLOWANCE_NOT_ENOUGH = '59'; // User borrows on behalf, but allowance are too small\n\n  //contract specific errors\n  string public constant VL_INVALID_AMOUNT = '1'; // 'Amount must be greater than 0'\n  string public constant VL_NO_ACTIVE_RESERVE = '2'; // 'Action requires an active reserve'\n  string public constant VL_RESERVE_FROZEN = '3'; // 'Action cannot be performed because the reserve is frozen'\n  string public constant VL_CURRENT_AVAILABLE_LIQUIDITY_NOT_ENOUGH = '4'; // 'The current liquidity is not enough'\n  string public constant VL_NOT_ENOUGH_AVAILABLE_USER_BALANCE = '5'; // 'User cannot withdraw more than the available balance'\n  string public constant VL_TRANSFER_NOT_ALLOWED = '6'; // 'Transfer cannot be allowed.'\n  string public constant VL_BORROWING_NOT_ENABLED = '7'; // 'Borrowing is not enabled'\n  string public constant VL_INVALID_INTEREST_RATE_MODE_SELECTED = '8'; // 'Invalid interest rate mode selected'\n  string public constant VL_COLLATERAL_BALANCE_IS_0 = '9'; // 'The collateral balance is 0'\n  string public constant VL_HEALTH_FACTOR_LOWER_THAN_LIQUIDATION_THRESHOLD = '10'; // 'Health factor is lesser than the liquidation threshold'\n  string public constant VL_COLLATERAL_CANNOT_COVER_NEW_BORROW = '11'; // 'There is not enough collateral to cover a new borrow'\n  string public constant VL_STABLE_BORROWING_NOT_ENABLED = '12'; // stable borrowing not enabled\n  string public constant VL_COLLATERAL_SAME_AS_BORROWING_CURRENCY = '13'; // collateral is (mostly) the same currency that is being borrowed\n  string public constant VL_AMOUNT_BIGGER_THAN_MAX_LOAN_SIZE_STABLE = '14'; // 'The requested amount is greater than the max loan size in stable rate mode\n  string public constant VL_NO_DEBT_OF_SELECTED_TYPE = '15'; // 'for repayment of stable debt, the user needs to have stable debt, otherwise, he needs to have variable debt'\n  string public constant VL_NO_EXPLICIT_AMOUNT_TO_REPAY_ON_BEHALF = '16'; // 'To repay on behalf of an user an explicit amount to repay is needed'\n  string public constant VL_NO_STABLE_RATE_LOAN_IN_RESERVE = '17'; // 'User does not have a stable rate loan in progress on this reserve'\n  string public constant VL_NO_VARIABLE_RATE_LOAN_IN_RESERVE = '18'; // 'User does not have a variable rate loan in progress on this reserve'\n  string public constant VL_UNDERLYING_BALANCE_NOT_GREATER_THAN_0 = '19'; // 'The underlying balance needs to be greater than 0'\n  string public constant VL_DEPOSIT_ALREADY_IN_USE = '20'; // 'User deposit is already being used as collateral'\n  string public constant LP_NOT_ENOUGH_STABLE_BORROW_BALANCE = '21'; // 'User does not have any stable rate loan for this reserve'\n  string public constant LP_INTEREST_RATE_REBALANCE_CONDITIONS_NOT_MET = '22'; // 'Interest rate rebalance conditions were not met'\n  string public constant LP_LIQUIDATION_CALL_FAILED = '23'; // 'Liquidation call failed'\n  string public constant LP_NOT_ENOUGH_LIQUIDITY_TO_BORROW = '24'; // 'There is not enough liquidity available to borrow'\n  string public constant LP_REQUESTED_AMOUNT_TOO_SMALL = '25'; // 'The requested amount is too small for a FlashLoan.'\n  string public constant LP_INCONSISTENT_PROTOCOL_ACTUAL_BALANCE = '26'; // 'The actual balance of the protocol is inconsistent'\n  string public constant LP_CALLER_NOT_LENDING_POOL_CONFIGURATOR = '27'; // 'The caller of the function is not the lending pool configurator'\n  string public constant LP_INCONSISTENT_FLASHLOAN_PARAMS = '28';\n  string public constant CT_CALLER_MUST_BE_LENDING_POOL = '29'; // 'The caller of this function must be a lending pool'\n  string public constant CT_CANNOT_GIVE_ALLOWANCE_TO_HIMSELF = '30'; // 'User cannot give allowance to himself'\n  string public constant CT_TRANSFER_AMOUNT_NOT_GT_0 = '31'; // 'Transferred amount needs to be greater than zero'\n  string public constant RL_RESERVE_ALREADY_INITIALIZED = '32'; // 'Reserve has already been initialized'\n  string public constant LPC_RESERVE_LIQUIDITY_NOT_0 = '34'; // 'The liquidity of the reserve needs to be 0'\n  string public constant LPC_INVALID_ATOKEN_POOL_ADDRESS = '35'; // 'The liquidity of the reserve needs to be 0'\n  string public constant LPC_INVALID_STABLE_DEBT_TOKEN_POOL_ADDRESS = '36'; // 'The liquidity of the reserve needs to be 0'\n  string public constant LPC_INVALID_VARIABLE_DEBT_TOKEN_POOL_ADDRESS = '37'; // 'The liquidity of the reserve needs to be 0'\n  string public constant LPC_INVALID_STABLE_DEBT_TOKEN_UNDERLYING_ADDRESS = '38'; // 'The liquidity of the reserve needs to be 0'\n  string public constant LPC_INVALID_VARIABLE_DEBT_TOKEN_UNDERLYING_ADDRESS = '39'; // 'The liquidity of the reserve needs to be 0'\n  string public constant LPC_INVALID_ADDRESSES_PROVIDER_ID = '40'; // 'The liquidity of the reserve needs to be 0'\n  string public constant LPC_INVALID_CONFIGURATION = '75'; // 'Invalid risk parameters for the reserve'\n  string public constant LPC_CALLER_NOT_EMERGENCY_ADMIN = '76'; // 'The caller must be the emergency admin'\n  string public constant LPAPR_PROVIDER_NOT_REGISTERED = '41'; // 'Provider is not registered'\n  string public constant LPCM_HEALTH_FACTOR_NOT_BELOW_THRESHOLD = '42'; // 'Health factor is not below the threshold'\n  string public constant LPCM_COLLATERAL_CANNOT_BE_LIQUIDATED = '43'; // 'The collateral chosen cannot be liquidated'\n  string public constant LPCM_SPECIFIED_CURRENCY_NOT_BORROWED_BY_USER = '44'; // 'User did not borrow the specified currency'\n  string public constant LPCM_NOT_ENOUGH_LIQUIDITY_TO_LIQUIDATE = '45'; // \"There isn't enough liquidity available to liquidate\"\n  string public constant LPCM_NO_ERRORS = '46'; // 'No errors'\n  string public constant LP_INVALID_FLASHLOAN_MODE = '47'; //Invalid flashloan mode selected\n  string public constant MATH_MULTIPLICATION_OVERFLOW = '48';\n  string public constant MATH_ADDITION_OVERFLOW = '49';\n  string public constant MATH_DIVISION_BY_ZERO = '50';\n  string public constant RL_LIQUIDITY_INDEX_OVERFLOW = '51'; //  Liquidity index overflows uint128\n  string public constant RL_VARIABLE_BORROW_INDEX_OVERFLOW = '52'; //  Variable borrow index overflows uint128\n  string public constant RL_LIQUIDITY_RATE_OVERFLOW = '53'; //  Liquidity rate overflows uint128\n  string public constant RL_VARIABLE_BORROW_RATE_OVERFLOW = '54'; //  Variable borrow rate overflows uint128\n  string public constant RL_STABLE_BORROW_RATE_OVERFLOW = '55'; //  Stable borrow rate overflows uint128\n  string public constant CT_INVALID_MINT_AMOUNT = '56'; //invalid amount to mint\n  string public constant LP_FAILED_REPAY_WITH_COLLATERAL = '57';\n  string public constant CT_INVALID_BURN_AMOUNT = '58'; //invalid amount to burn\n  string public constant LP_FAILED_COLLATERAL_SWAP = '60';\n  string public constant LP_INVALID_EQUAL_ASSETS_TO_SWAP = '61';\n  string public constant LP_REENTRANCY_NOT_ALLOWED = '62';\n  string public constant LP_CALLER_MUST_BE_AN_ATOKEN = '63';\n  string public constant LP_IS_PAUSED = '64'; // 'Pool is paused'\n  string public constant LP_NO_MORE_RESERVES_ALLOWED = '65';\n  string public constant LP_INVALID_FLASH_LOAN_EXECUTOR_RETURN = '66';\n  string public constant RC_INVALID_LTV = '67';\n  string public constant RC_INVALID_LIQ_THRESHOLD = '68';\n  string public constant RC_INVALID_LIQ_BONUS = '69';\n  string public constant RC_INVALID_DECIMALS = '70';\n  string public constant RC_INVALID_RESERVE_FACTOR = '71';\n  string public constant LPAPR_INVALID_ADDRESSES_PROVIDER_ID = '72';\n  string public constant VL_INCONSISTENT_FLASHLOAN_PARAMS = '73';\n  string public constant LP_INCONSISTENT_PARAMS_LENGTH = '74';\n  string public constant UL_INVALID_INDEX = '77';\n  string public constant LP_NOT_CONTRACT = '78';\n  string public constant SDT_STABLE_DEBT_OVERFLOW = '79';\n  string public constant SDT_BURN_EXCEEDS_BALANCE = '80';\n\n  enum CollateralManagerErrors {\n    NO_ERROR,\n    NO_COLLATERAL_AVAILABLE,\n    COLLATERAL_CANNOT_BE_LIQUIDATED,\n    CURRRENCY_NOT_BORROWED,\n    HEALTH_FACTOR_ABOVE_THRESHOLD,\n    NOT_ENOUGH_LIQUIDITY,\n    NO_ACTIVE_RESERVE,\n    HEALTH_FACTOR_LOWER_THAN_LIQUIDATION_THRESHOLD,\n    INVALID_EQUAL_ASSETS_TO_SWAP,\n    FROZEN_RESERVE\n  }\n}\n\n/**\n * @title ReserveConfiguration library\n * @author Aave\n * @notice Implements the bitmap logic to handle the reserve configuration\n */\nlibrary ReserveConfiguration {\n  uint256 constant LTV_MASK =                   0xFFFFFFFFFFFFFFFFFFFFFFFFFFFFFFFFFFFFFFFFFFFFFFFFFFFFFFFFFFFF0000; // prettier-ignore\n  uint256 constant LIQUIDATION_THRESHOLD_MASK = 0xFFFFFFFFFFFFFFFFFFFFFFFFFFFFFFFFFFFFFFFFFFFFFFFFFFFFFFFF0000FFFF; // prettier-ignore\n  uint256 constant LIQUIDATION_BONUS_MASK =     0xFFFFFFFFFFFFFFFFFFFFFFFFFFFFFFFFFFFFFFFFFFFFFFFFFFFF0000FFFFFFFF; // prettier-ignore\n  uint256 constant DECIMALS_MASK =              0xFFFFFFFFFFFFFFFFFFFFFFFFFFFFFFFFFFFFFFFFFFFFFFFFFF00FFFFFFFFFFFF; // prettier-ignore\n  uint256 constant ACTIVE_MASK =                0xFFFFFFFFFFFFFFFFFFFFFFFFFFFFFFFFFFFFFFFFFFFFFFFFFEFFFFFFFFFFFFFF; // prettier-ignore\n  uint256 constant FROZEN_MASK =                0xFFFFFFFFFFFFFFFFFFFFFFFFFFFFFFFFFFFFFFFFFFFFFFFFFDFFFFFFFFFFFFFF; // prettier-ignore\n  uint256 constant BORROWING_MASK =             0xFFFFFFFFFFFFFFFFFFFFFFFFFFFFFFFFFFFFFFFFFFFFFFFFFBFFFFFFFFFFFFFF; // prettier-ignore\n  uint256 constant STABLE_BORROWING_MASK =      0xFFFFFFFFFFFFFFFFFFFFFFFFFFFFFFFFFFFFFFFFFFFFFFFFF7FFFFFFFFFFFFFF; // prettier-ignore\n  uint256 constant RESERVE_FACTOR_MASK =        0xFFFFFFFFFFFFFFFFFFFFFFFFFFFFFFFFFFFFFFFFFFFF0000FFFFFFFFFFFFFFFF; // prettier-ignore\n\n  /// @dev For the LTV, the start bit is 0 (up to 15), hence no bitshifting is needed\n  uint256 constant LIQUIDATION_THRESHOLD_START_BIT_POSITION = 16;\n  uint256 constant LIQUIDATION_BONUS_START_BIT_POSITION = 32;\n  uint256 constant RESERVE_DECIMALS_START_BIT_POSITION = 48;\n  uint256 constant IS_ACTIVE_START_BIT_POSITION = 56;\n  uint256 constant IS_FROZEN_START_BIT_POSITION = 57;\n  uint256 constant BORROWING_ENABLED_START_BIT_POSITION = 58;\n  uint256 constant STABLE_BORROWING_ENABLED_START_BIT_POSITION = 59;\n  uint256 constant RESERVE_FACTOR_START_BIT_POSITION = 64;\n\n  uint256 constant MAX_VALID_LTV = 65535;\n  uint256 constant MAX_VALID_LIQUIDATION_THRESHOLD = 65535;\n  uint256 constant MAX_VALID_LIQUIDATION_BONUS = 65535;\n  uint256 constant MAX_VALID_DECIMALS = 255;\n  uint256 constant MAX_VALID_RESERVE_FACTOR = 65535;\n\n  /**\n   * @dev Sets the Loan to Value of the reserve\n   * @param self The reserve configuration\n   * @param ltv the new ltv\n   **/\n  function setLtv(DataTypes.ReserveConfigurationMap memory self, uint256 ltv) internal pure {\n    require(ltv <= MAX_VALID_LTV, Errors.RC_INVALID_LTV);\n\n    self.data = (self.data & LTV_MASK) | ltv;\n  }\n\n  /**\n   * @dev Gets the Loan to Value of the reserve\n   * @param self The reserve configuration\n   * @return The loan to value\n   **/\n  function getLtv(DataTypes.ReserveConfigurationMap storage self) internal view returns (uint256) {\n    return self.data & ~LTV_MASK;\n  }\n\n  /**\n   * @dev Sets the liquidation threshold of the reserve\n   * @param self The reserve configuration\n   * @param threshold The new liquidation threshold\n   **/\n  function setLiquidationThreshold(DataTypes.ReserveConfigurationMap memory self, uint256 threshold)\n    internal\n    pure\n  {\n    require(threshold <= MAX_VALID_LIQUIDATION_THRESHOLD, Errors.RC_INVALID_LIQ_THRESHOLD);\n\n    self.data =\n      (self.data & LIQUIDATION_THRESHOLD_MASK) |\n      (threshold << LIQUIDATION_THRESHOLD_START_BIT_POSITION);\n  }\n\n  /**\n   * @dev Gets the liquidation threshold of the reserve\n   * @param self The reserve configuration\n   * @return The liquidation threshold\n   **/\n  function getLiquidationThreshold(DataTypes.ReserveConfigurationMap storage self)\n    internal\n    view\n    returns (uint256)\n  {\n    return (self.data & ~LIQUIDATION_THRESHOLD_MASK) >> LIQUIDATION_THRESHOLD_START_BIT_POSITION;\n  }\n\n  /**\n   * @dev Sets the liquidation bonus of the reserve\n   * @param self The reserve configuration\n   * @param bonus The new liquidation bonus\n   **/\n  function setLiquidationBonus(DataTypes.ReserveConfigurationMap memory self, uint256 bonus)\n    internal\n    pure\n  {\n    require(bonus <= MAX_VALID_LIQUIDATION_BONUS, Errors.RC_INVALID_LIQ_BONUS);\n\n    self.data =\n      (self.data & LIQUIDATION_BONUS_MASK) |\n      (bonus << LIQUIDATION_BONUS_START_BIT_POSITION);\n  }\n\n  /**\n   * @dev Gets the liquidation bonus of the reserve\n   * @param self The reserve configuration\n   * @return The liquidation bonus\n   **/\n  function getLiquidationBonus(DataTypes.ReserveConfigurationMap storage self)\n    internal\n    view\n    returns (uint256)\n  {\n    return (self.data & ~LIQUIDATION_BONUS_MASK) >> LIQUIDATION_BONUS_START_BIT_POSITION;\n  }\n\n  /**\n   * @dev Sets the decimals of the underlying asset of the reserve\n   * @param self The reserve configuration\n   * @param decimals The decimals\n   **/\n  function setDecimals(DataTypes.ReserveConfigurationMap memory self, uint256 decimals)\n    internal\n    pure\n  {\n    require(decimals <= MAX_VALID_DECIMALS, Errors.RC_INVALID_DECIMALS);\n\n    self.data = (self.data & DECIMALS_MASK) | (decimals << RESERVE_DECIMALS_START_BIT_POSITION);\n  }\n\n  /**\n   * @dev Gets the decimals of the underlying asset of the reserve\n   * @param self The reserve configuration\n   * @return The decimals of the asset\n   **/\n  function getDecimals(DataTypes.ReserveConfigurationMap storage self)\n    internal\n    view\n    returns (uint256)\n  {\n    return (self.data & ~DECIMALS_MASK) >> RESERVE_DECIMALS_START_BIT_POSITION;\n  }\n\n  /**\n   * @dev Sets the active state of the reserve\n   * @param self The reserve configuration\n   * @param active The active state\n   **/\n  function setActive(DataTypes.ReserveConfigurationMap memory self, bool active) internal pure {\n    self.data =\n      (self.data & ACTIVE_MASK) |\n      (uint256(active ? 1 : 0) << IS_ACTIVE_START_BIT_POSITION);\n  }\n\n  /**\n   * @dev Gets the active state of the reserve\n   * @param self The reserve configuration\n   * @return The active state\n   **/\n  function getActive(DataTypes.ReserveConfigurationMap storage self) internal view returns (bool) {\n    return (self.data & ~ACTIVE_MASK) != 0;\n  }\n\n  /**\n   * @dev Sets the frozen state of the reserve\n   * @param self The reserve configuration\n   * @param frozen The frozen state\n   **/\n  function setFrozen(DataTypes.ReserveConfigurationMap memory self, bool frozen) internal pure {\n    self.data =\n      (self.data & FROZEN_MASK) |\n      (uint256(frozen ? 1 : 0) << IS_FROZEN_START_BIT_POSITION);\n  }\n\n  /**\n   * @dev Gets the frozen state of the reserve\n   * @param self The reserve configuration\n   * @return The frozen state\n   **/\n  function getFrozen(DataTypes.ReserveConfigurationMap storage self) internal view returns (bool) {\n    return (self.data & ~FROZEN_MASK) != 0;\n  }\n\n  /**\n   * @dev Enables or disables borrowing on the reserve\n   * @param self The reserve configuration\n   * @param enabled True if the borrowing needs to be enabled, false otherwise\n   **/\n  function setBorrowingEnabled(DataTypes.ReserveConfigurationMap memory self, bool enabled)\n    internal\n    pure\n  {\n    self.data =\n      (self.data & BORROWING_MASK) |\n      (uint256(enabled ? 1 : 0) << BORROWING_ENABLED_START_BIT_POSITION);\n  }\n\n  /**\n   * @dev Gets the borrowing state of the reserve\n   * @param self The reserve configuration\n   * @return The borrowing state\n   **/\n  function getBorrowingEnabled(DataTypes.ReserveConfigurationMap storage self)\n    internal\n    view\n    returns (bool)\n  {\n    return (self.data & ~BORROWING_MASK) != 0;\n  }\n\n  /**\n   * @dev Enables or disables stable rate borrowing on the reserve\n   * @param self The reserve configuration\n   * @param enabled True if the stable rate borrowing needs to be enabled, false otherwise\n   **/\n  function setStableRateBorrowingEnabled(\n    DataTypes.ReserveConfigurationMap memory self,\n    bool enabled\n  ) internal pure {\n    self.data =\n      (self.data & STABLE_BORROWING_MASK) |\n      (uint256(enabled ? 1 : 0) << STABLE_BORROWING_ENABLED_START_BIT_POSITION);\n  }\n\n  /**\n   * @dev Gets the stable rate borrowing state of the reserve\n   * @param self The reserve configuration\n   * @return The stable rate borrowing state\n   **/\n  function getStableRateBorrowingEnabled(DataTypes.ReserveConfigurationMap storage self)\n    internal\n    view\n    returns (bool)\n  {\n    return (self.data & ~STABLE_BORROWING_MASK) != 0;\n  }\n\n  /**\n   * @dev Sets the reserve factor of the reserve\n   * @param self The reserve configuration\n   * @param reserveFactor The reserve factor\n   **/\n  function setReserveFactor(DataTypes.ReserveConfigurationMap memory self, uint256 reserveFactor)\n    internal\n    pure\n  {\n    require(reserveFactor <= MAX_VALID_RESERVE_FACTOR, Errors.RC_INVALID_RESERVE_FACTOR);\n\n    self.data =\n      (self.data & RESERVE_FACTOR_MASK) |\n      (reserveFactor << RESERVE_FACTOR_START_BIT_POSITION);\n  }\n\n  /**\n   * @dev Gets the reserve factor of the reserve\n   * @param self The reserve configuration\n   * @return The reserve factor\n   **/\n  function getReserveFactor(DataTypes.ReserveConfigurationMap storage self)\n    internal\n    view\n    returns (uint256)\n  {\n    return (self.data & ~RESERVE_FACTOR_MASK) >> RESERVE_FACTOR_START_BIT_POSITION;\n  }\n\n  /**\n   * @dev Gets the configuration flags of the reserve\n   * @param self The reserve configuration\n   * @return The state flags representing active, frozen, borrowing enabled, stableRateBorrowing enabled\n   **/\n  function getFlags(DataTypes.ReserveConfigurationMap storage self)\n    internal\n    view\n    returns (\n      bool,\n      bool,\n      bool,\n      bool\n    )\n  {\n    uint256 dataLocal = self.data;\n\n    return (\n      (dataLocal & ~ACTIVE_MASK) != 0,\n      (dataLocal & ~FROZEN_MASK) != 0,\n      (dataLocal & ~BORROWING_MASK) != 0,\n      (dataLocal & ~STABLE_BORROWING_MASK) != 0\n    );\n  }\n\n  /**\n   * @dev Gets the configuration paramters of the reserve\n   * @param self The reserve configuration\n   * @return The state params representing ltv, liquidation threshold, liquidation bonus, the reserve decimals\n   **/\n  function getParams(DataTypes.ReserveConfigurationMap storage self)\n    internal\n    view\n    returns (\n      uint256,\n      uint256,\n      uint256,\n      uint256,\n      uint256\n    )\n  {\n    uint256 dataLocal = self.data;\n\n    return (\n      dataLocal & ~LTV_MASK,\n      (dataLocal & ~LIQUIDATION_THRESHOLD_MASK) >> LIQUIDATION_THRESHOLD_START_BIT_POSITION,\n      (dataLocal & ~LIQUIDATION_BONUS_MASK) >> LIQUIDATION_BONUS_START_BIT_POSITION,\n      (dataLocal & ~DECIMALS_MASK) >> RESERVE_DECIMALS_START_BIT_POSITION,\n      (dataLocal & ~RESERVE_FACTOR_MASK) >> RESERVE_FACTOR_START_BIT_POSITION\n    );\n  }\n\n  /**\n   * @dev Gets the configuration paramters of the reserve from a memory object\n   * @param self The reserve configuration\n   * @return The state params representing ltv, liquidation threshold, liquidation bonus, the reserve decimals\n   **/\n  function getParamsMemory(DataTypes.ReserveConfigurationMap memory self)\n    internal\n    pure\n    returns (\n      uint256,\n      uint256,\n      uint256,\n      uint256,\n      uint256\n    )\n  {\n    return (\n      self.data & ~LTV_MASK,\n      (self.data & ~LIQUIDATION_THRESHOLD_MASK) >> LIQUIDATION_THRESHOLD_START_BIT_POSITION,\n      (self.data & ~LIQUIDATION_BONUS_MASK) >> LIQUIDATION_BONUS_START_BIT_POSITION,\n      (self.data & ~DECIMALS_MASK) >> RESERVE_DECIMALS_START_BIT_POSITION,\n      (self.data & ~RESERVE_FACTOR_MASK) >> RESERVE_FACTOR_START_BIT_POSITION\n    );\n  }\n\n  /**\n   * @dev Gets the configuration flags of the reserve from a memory object\n   * @param self The reserve configuration\n   * @return The state flags representing active, frozen, borrowing enabled, stableRateBorrowing enabled\n   **/\n  function getFlagsMemory(DataTypes.ReserveConfigurationMap memory self)\n    internal\n    pure\n    returns (\n      bool,\n      bool,\n      bool,\n      bool\n    )\n  {\n    return (\n      (self.data & ~ACTIVE_MASK) != 0,\n      (self.data & ~FROZEN_MASK) != 0,\n      (self.data & ~BORROWING_MASK) != 0,\n      (self.data & ~STABLE_BORROWING_MASK) != 0\n    );\n  }\n}\n\n/**\n * @title UserConfiguration library\n * @author Aave\n * @notice Implements the bitmap logic to handle the user configuration\n */\nlibrary UserConfiguration {\n  uint256 internal constant BORROWING_MASK =\n    0x5555555555555555555555555555555555555555555555555555555555555555;\n\n  /**\n   * @dev Sets if the user is borrowing the reserve identified by reserveIndex\n   * @param self The configuration object\n   * @param reserveIndex The index of the reserve in the bitmap\n   * @param borrowing True if the user is borrowing the reserve, false otherwise\n   **/\n  function setBorrowing(\n    DataTypes.UserConfigurationMap storage self,\n    uint256 reserveIndex,\n    bool borrowing\n  ) internal {\n    require(reserveIndex < 128, Errors.UL_INVALID_INDEX);\n    self.data =\n      (self.data & ~(1 << (reserveIndex * 2))) |\n      (uint256(borrowing ? 1 : 0) << (reserveIndex * 2));\n  }\n\n  /**\n   * @dev Sets if the user is using as collateral the reserve identified by reserveIndex\n   * @param self The configuration object\n   * @param reserveIndex The index of the reserve in the bitmap\n   * @param usingAsCollateral True if the user is usin the reserve as collateral, false otherwise\n   **/\n  function setUsingAsCollateral(\n    DataTypes.UserConfigurationMap storage self,\n    uint256 reserveIndex,\n    bool usingAsCollateral\n  ) internal {\n    require(reserveIndex < 128, Errors.UL_INVALID_INDEX);\n    self.data =\n      (self.data & ~(1 << (reserveIndex * 2 + 1))) |\n      (uint256(usingAsCollateral ? 1 : 0) << (reserveIndex * 2 + 1));\n  }\n\n  /**\n   * @dev Used to validate if a user has been using the reserve for borrowing or as collateral\n   * @param self The configuration object\n   * @param reserveIndex The index of the reserve in the bitmap\n   * @return True if the user has been using a reserve for borrowing or as collateral, false otherwise\n   **/\n  function isUsingAsCollateralOrBorrowing(\n    DataTypes.UserConfigurationMap memory self,\n    uint256 reserveIndex\n  ) internal pure returns (bool) {\n    require(reserveIndex < 128, Errors.UL_INVALID_INDEX);\n    return (self.data >> (reserveIndex * 2)) & 3 != 0;\n  }\n\n  /**\n   * @dev Used to validate if a user has been using the reserve for borrowing\n   * @param self The configuration object\n   * @param reserveIndex The index of the reserve in the bitmap\n   * @return True if the user has been using a reserve for borrowing, false otherwise\n   **/\n  function isBorrowing(DataTypes.UserConfigurationMap memory self, uint256 reserveIndex)\n    internal\n    pure\n    returns (bool)\n  {\n    require(reserveIndex < 128, Errors.UL_INVALID_INDEX);\n    return (self.data >> (reserveIndex * 2)) & 1 != 0;\n  }\n\n  /**\n   * @dev Used to validate if a user has been using the reserve as collateral\n   * @param self The configuration object\n   * @param reserveIndex The index of the reserve in the bitmap\n   * @return True if the user has been using a reserve as collateral, false otherwise\n   **/\n  function isUsingAsCollateral(DataTypes.UserConfigurationMap memory self, uint256 reserveIndex)\n    internal\n    pure\n    returns (bool)\n  {\n    require(reserveIndex < 128, Errors.UL_INVALID_INDEX);\n    return (self.data >> (reserveIndex * 2 + 1)) & 1 != 0;\n  }\n\n  /**\n   * @dev Used to validate if a user has been borrowing from any reserve\n   * @param self The configuration object\n   * @return True if the user has been borrowing any reserve, false otherwise\n   **/\n  function isBorrowingAny(DataTypes.UserConfigurationMap memory self) internal pure returns (bool) {\n    return self.data & BORROWING_MASK != 0;\n  }\n\n  /**\n   * @dev Used to validate if a user has not been using any reserve\n   * @param self The configuration object\n   * @return True if the user has been borrowing any reserve, false otherwise\n   **/\n  function isEmpty(DataTypes.UserConfigurationMap memory self) internal pure returns (bool) {\n    return self.data == 0;\n  }\n}\n\ncontract AaveProtocolDataProvider {\n  using ReserveConfiguration for DataTypes.ReserveConfigurationMap;\n  using UserConfiguration for DataTypes.UserConfigurationMap;\n\n  address constant MKR = 0x9f8F72aA9304c8B593d555F12eF6589cC3A579A2;\n  address constant ETH = 0xEeeeeEeeeEeEeeEeEeEeeEEEeeeeEeeeeeeeEEeE;\n\n  struct TokenData {\n    string symbol;\n    address tokenAddress;\n  }\n\n  ILendingPoolAddressesProvider public immutable ADDRESSES_PROVIDER;\n\n  constructor(ILendingPoolAddressesProvider addressesProvider) public {\n    ADDRESSES_PROVIDER = addressesProvider;\n  }\n\n  function getAllReservesTokens() external view returns (TokenData[] memory) {\n    ILendingPool pool = ILendingPool(ADDRESSES_PROVIDER.getLendingPool());\n    address[] memory reserves = pool.getReservesList();\n    TokenData[] memory reservesTokens = new TokenData[](reserves.length);\n    for (uint256 i = 0; i < reserves.length; i++) {\n      if (reserves[i] == MKR) {\n        reservesTokens[i] = TokenData({symbol: 'MKR', tokenAddress: reserves[i]});\n        continue;\n      }\n      if (reserves[i] == ETH) {\n        reservesTokens[i] = TokenData({symbol: 'ETH', tokenAddress: reserves[i]});\n        continue;\n      }\n      reservesTokens[i] = TokenData({\n        symbol: IERC20Detailed(reserves[i]).symbol(),\n        tokenAddress: reserves[i]\n      });\n    }\n    return reservesTokens;\n  }\n\n  function getAllATokens() external view returns (TokenData[] memory) {\n    ILendingPool pool = ILendingPool(ADDRESSES_PROVIDER.getLendingPool());\n    address[] memory reserves = pool.getReservesList();\n    TokenData[] memory aTokens = new TokenData[](reserves.length);\n    for (uint256 i = 0; i < reserves.length; i++) {\n      DataTypes.ReserveData memory reserveData = pool.getReserveData(reserves[i]);\n      aTokens[i] = TokenData({\n        symbol: IERC20Detailed(reserveData.aTokenAddress).symbol(),\n        tokenAddress: reserveData.aTokenAddress\n      });\n    }\n    return aTokens;\n  }\n\n  function getReserveConfigurationData(address asset)\n    external\n    view\n    returns (\n      uint256 decimals,\n      uint256 ltv,\n      uint256 liquidationThreshold,\n      uint256 liquidationBonus,\n      uint256 reserveFactor,\n      bool usageAsCollateralEnabled,\n      bool borrowingEnabled,\n      bool stableBorrowRateEnabled,\n      bool isActive,\n      bool isFrozen\n    )\n  {\n    DataTypes.ReserveConfigurationMap memory configuration =\n      ILendingPool(ADDRESSES_PROVIDER.getLendingPool()).getConfiguration(asset);\n\n    (ltv, liquidationThreshold, liquidationBonus, decimals, reserveFactor) = configuration\n      .getParamsMemory();\n\n    (isActive, isFrozen, borrowingEnabled, stableBorrowRateEnabled) = configuration\n      .getFlagsMemory();\n\n    usageAsCollateralEnabled = liquidationThreshold > 0;\n  }\n\n  function getReserveData(address asset)\n    external\n    view\n    returns (\n      uint256 availableLiquidity,\n      uint256 totalStableDebt,\n      uint256 totalVariableDebt,\n      uint256 liquidityRate,\n      uint256 variableBorrowRate,\n      uint256 stableBorrowRate,\n      uint256 averageStableBorrowRate,\n      uint256 liquidityIndex,\n      uint256 variableBorrowIndex,\n      uint40 lastUpdateTimestamp\n    )\n  {\n    DataTypes.ReserveData memory reserve =\n      ILendingPool(ADDRESSES_PROVIDER.getLendingPool()).getReserveData(asset);\n\n    return (\n      IERC20Detailed(asset).balanceOf(reserve.aTokenAddress),\n      IERC20Detailed(reserve.stableDebtTokenAddress).totalSupply(),\n      IERC20Detailed(reserve.variableDebtTokenAddress).totalSupply(),\n      reserve.currentLiquidityRate,\n      reserve.currentVariableBorrowRate,\n      reserve.currentStableBorrowRate,\n      IStableDebtToken(reserve.stableDebtTokenAddress).getAverageStableRate(),\n      reserve.liquidityIndex,\n      reserve.variableBorrowIndex,\n      reserve.lastUpdateTimestamp\n    );\n  }\n\n  function getUserReserveData(address asset, address user)\n    external\n    view\n    returns (\n      uint256 currentATokenBalance,\n      uint256 currentStableDebt,\n      uint256 currentVariableDebt,\n      uint256 principalStableDebt,\n      uint256 scaledVariableDebt,\n      uint256 stableBorrowRate,\n      uint256 liquidityRate,\n      uint40 stableRateLastUpdated,\n      bool usageAsCollateralEnabled\n    )\n  {\n    DataTypes.ReserveData memory reserve =\n      ILendingPool(ADDRESSES_PROVIDER.getLendingPool()).getReserveData(asset);\n\n    DataTypes.UserConfigurationMap memory userConfig =\n      ILendingPool(ADDRESSES_PROVIDER.getLendingPool()).getUserConfiguration(user);\n\n    currentATokenBalance = IERC20Detailed(reserve.aTokenAddress).balanceOf(user);\n    currentVariableDebt = IERC20Detailed(reserve.variableDebtTokenAddress).balanceOf(user);\n    currentStableDebt = IERC20Detailed(reserve.stableDebtTokenAddress).balanceOf(user);\n    principalStableDebt = IStableDebtToken(reserve.stableDebtTokenAddress).principalBalanceOf(user);\n    scaledVariableDebt = IVariableDebtToken(reserve.variableDebtTokenAddress).scaledBalanceOf(user);\n    liquidityRate = reserve.currentLiquidityRate;\n    stableBorrowRate = IStableDebtToken(reserve.stableDebtTokenAddress).getUserStableRate(user);\n    stableRateLastUpdated = IStableDebtToken(reserve.stableDebtTokenAddress).getUserLastUpdated(\n      user\n    );\n    usageAsCollateralEnabled = userConfig.isUsingAsCollateral(reserve.id);\n  }\n\n  function getReserveTokensAddresses(address asset)\n    external\n    view\n    returns (\n      address aTokenAddress,\n      address stableDebtTokenAddress,\n      address variableDebtTokenAddress\n    )\n  {\n    DataTypes.ReserveData memory reserve =\n      ILendingPool(ADDRESSES_PROVIDER.getLendingPool()).getReserveData(asset);\n\n    return (\n      reserve.aTokenAddress,\n      reserve.stableDebtTokenAddress,\n      reserve.variableDebtTokenAddress\n    );\n  }\n}\n",
  "sourcePath": "/Users/ioanaroceanu/Documents/Blog Code/interest-rate-swaps/contracts/AaveProtocolDataProvider.sol",
  "compiler": {
    "name": "solc",
    "version": "0.8.13+commit.abaa5c0e.Emscripten.clang"
  },
  "schemaVersion": "3.4.3",
  "updatedAt": "2022-05-10T20:38:23.987Z",
  "devdoc": {
    "kind": "dev",
    "methods": {},
    "version": 1
  },
  "userdoc": {
    "kind": "user",
    "methods": {},
    "version": 1
  }
}