{
  "contractName": "IrsContract",
  "abi": [
    {
      "inputs": [
        {
          "internalType": "address",
          "name": "_asset",
          "type": "address"
        },
        {
          "internalType": "uint256",
          "name": "_notional",
          "type": "uint256"
        },
        {
          "internalType": "uint128",
          "name": "_duration",
          "type": "uint128"
        },
        {
          "internalType": "uint256",
          "name": "_initTime",
          "type": "uint256"
        },
        {
          "internalType": "address",
          "name": "_ft",
          "type": "address"
        },
        {
          "internalType": "address",
          "name": "_vt",
          "type": "address"
        },
        {
          "internalType": "uint128",
          "name": "_fixedYearRate",
          "type": "uint128"
        },
        {
          "internalType": "address",
          "name": "_AAVE_CONTRACT",
          "type": "address"
        }
      ],
      "stateMutability": "nonpayable",
      "type": "constructor"
    },
    {
      "inputs": [
        {
          "internalType": "int256",
          "name": "x",
          "type": "int256"
        }
      ],
      "name": "PRBMathSD59x18__Exp2InputTooBig",
      "type": "error"
    },
    {
      "inputs": [
        {
          "internalType": "int256",
          "name": "x",
          "type": "int256"
        }
      ],
      "name": "PRBMathSD59x18__LogInputTooSmall",
      "type": "error"
    },
    {
      "inputs": [],
      "name": "PRBMathSD59x18__MulInputTooSmall",
      "type": "error"
    },
    {
      "inputs": [
        {
          "internalType": "uint256",
          "name": "rAbs",
          "type": "uint256"
        }
      ],
      "name": "PRBMathSD59x18__MulOverflow",
      "type": "error"
    },
    {
      "inputs": [
        {
          "internalType": "uint256",
          "name": "prod1",
          "type": "uint256"
        }
      ],
      "name": "PRBMath__MulDivFixedPointOverflow",
      "type": "error"
    },
    {
      "inputs": [],
      "name": "AAVE_CONTRACT",
      "outputs": [
        {
          "internalType": "address",
          "name": "",
          "type": "address"
        }
      ],
      "stateMutability": "view",
      "type": "function"
    },
    {
      "inputs": [],
      "name": "ft",
      "outputs": [
        {
          "internalType": "address",
          "name": "wallet",
          "type": "address"
        },
        {
          "internalType": "bool",
          "name": "signed",
          "type": "bool"
        },
        {
          "internalType": "uint256",
          "name": "marginAmount",
          "type": "uint256"
        }
      ],
      "stateMutability": "view",
      "type": "function"
    },
    {
      "inputs": [],
      "name": "vt",
      "outputs": [
        {
          "internalType": "address",
          "name": "wallet",
          "type": "address"
        },
        {
          "internalType": "bool",
          "name": "signed",
          "type": "bool"
        },
        {
          "internalType": "uint256",
          "name": "marginAmount",
          "type": "uint256"
        }
      ],
      "stateMutability": "view",
      "type": "function"
    },
    {
      "inputs": [],
      "name": "signAndDepositMargin",
      "outputs": [],
      "stateMutability": "nonpayable",
      "type": "function"
    },
    {
      "inputs": [],
      "name": "settleContract",
      "outputs": [],
      "stateMutability": "nonpayable",
      "type": "function"
    },
    {
      "inputs": [
        {
          "internalType": "address",
          "name": "toLiquidate",
          "type": "address"
        }
      ],
      "name": "liquidate",
      "outputs": [],
      "stateMutability": "nonpayable",
      "type": "function"
    }
  ],
  "bytecode": "0x60806040523480156200001157600080fd5b5060405162002fd838038062002fd88339818101604052810190620000379190620003e3565b600160008190555084421062000084576040517f08c379a00000000000000000000000000000000000000000000000000000000081526004016200007b9062000533565b60405180910390fd5b80600160006101000a81548173ffffffffffffffffffffffffffffffffffffffff021916908373ffffffffffffffffffffffffffffffffffffffff16021790555087600760006101000a81548173ffffffffffffffffffffffffffffffffffffffff021916908373ffffffffffffffffffffffffffffffffffffffff16021790555086600681905550856fffffffffffffffffffffffffffffffff1660088190555084600981905550670de0b6b3a764000062000163836fffffffffffffffffffffffffffffffff166301e13380620002d960201b62000dea1760201c565b6200016f919062000584565b600b8190555060405180606001604052808573ffffffffffffffffffffffffffffffffffffffff1681526020016000151581526020016000815250600260008201518160000160006101000a81548173ffffffffffffffffffffffffffffffffffffffff021916908373ffffffffffffffffffffffffffffffffffffffff16021790555060208201518160000160146101000a81548160ff0219169083151502179055506040820151816001015590505060405180606001604052808473ffffffffffffffffffffffffffffffffffffffff1681526020016000151581526020016000815250600460008201518160000160006101000a81548173ffffffffffffffffffffffffffffffffffffffff021916908373ffffffffffffffffffffffffffffffffffffffff16021790555060208201518160000160146101000a81548160ff02191690831515021790555060408201518160010155905050505050505050505062000648565b60008183620002e9919062000610565b905092915050565b600080fd5b600073ffffffffffffffffffffffffffffffffffffffff82169050919050565b60006200032382620002f6565b9050919050565b620003358162000316565b81146200034157600080fd5b50565b60008151905062000355816200032a565b92915050565b6000819050919050565b62000370816200035b565b81146200037c57600080fd5b50565b600081519050620003908162000365565b92915050565b60006fffffffffffffffffffffffffffffffff82169050919050565b620003bd8162000396565b8114620003c957600080fd5b50565b600081519050620003dd81620003b2565b92915050565b600080600080600080600080610100898b031215620004075762000406620002f1565b5b6000620004178b828c0162000344565b98505060206200042a8b828c016200037f565b97505060406200043d8b828c01620003cc565b9650506060620004508b828c016200037f565b9550506080620004638b828c0162000344565b94505060a0620004768b828c0162000344565b93505060c0620004898b828c01620003cc565b92505060e06200049c8b828c0162000344565b9150509295985092959890939650565b600082825260208201905092915050565b7f706c656173652063686f6f736520612074696d6520696e20746865206675747560008201527f7265000000000000000000000000000000000000000000000000000000000000602082015250565b60006200051b602283620004ac565b91506200052882620004bd565b604082019050919050565b600060208201905081810360008301526200054e816200050c565b9050919050565b7f4e487b7100000000000000000000000000000000000000000000000000000000600052601160045260246000fd5b600062000591826200035b565b91506200059e836200035b565b9250827fffffffffffffffffffffffffffffffffffffffffffffffffffffffffffffffff03821115620005d657620005d562000555565b5b828201905092915050565b7f4e487b7100000000000000000000000000000000000000000000000000000000600052601260045260246000fd5b60006200061d826200035b565b91506200062a836200035b565b9250826200063d576200063c620005e1565b5b828204905092915050565b61298080620006586000396000f3fe608060405234801561001057600080fd5b50600436106100625760003560e01c80630891b256146100675780632f865568146100715780633061a4f91461008d57806372be1c1714610097578063bb1631cf146100b7578063e80f3ed2146100d7575b600080fd5b61006f6100f5565b005b61008b6004803603810190610086919061219a565b6103d1565b005b6100956108b4565b005b61009f610d3a565b6040516100ae9392919061220a565b60405180910390f35b6100bf610d7f565b6040516100ce9392919061220a565b60405180910390f35b6100df610dc4565b6040516100ec9190612241565b60405180910390f35b60026000540361013a576040517f08c379a0000000000000000000000000000000000000000000000000000000008152600401610131906122b9565b60405180910390fd5b6002600081905550600260000160149054906101000a900460ff1680156101705750600460000160149054906101000a900460ff165b6101af576040517f08c379a00000000000000000000000000000000000000000000000000000000081526004016101a690612325565b60405180910390fd5b426008546009546101c09190612374565b1015610201576040517f08c379a00000000000000000000000000000000000000000000000000000000081526004016101f890612416565b60405180910390fd5b600080600061020e610e00565b92509250925060026001015483111561025c576040517f08c379a0000000000000000000000000000000000000000000000000000000008152600401610253906124a8565b60405180910390fd5b600760009054906101000a900473ffffffffffffffffffffffffffffffffffffffff1673ffffffffffffffffffffffffffffffffffffffff1663a9059cbb83600001518460400151866102af9190612374565b6040518363ffffffff1660e01b81526004016102cc9291906124c8565b6020604051808303816000875af11580156102eb573d6000803e3d6000fd5b505050506040513d601f19601f8201168201806040525081019061030f919061251d565b50600760009054906101000a900473ffffffffffffffffffffffffffffffffffffffff1673ffffffffffffffffffffffffffffffffffffffff1663a9059cbb8260000151858460400151610363919061254a565b6040518363ffffffff1660e01b81526004016103809291906124c8565b6020604051808303816000875af115801561039f573d6000803e3d6000fd5b505050506040513d601f19601f820116820180604052508101906103c3919061251d565b505050506001600081905550565b600260005403610416576040517f08c379a000000000000000000000000000000000000000000000000000000000815260040161040d906122b9565b60405180910390fd5b6002600081905550600260000160149054906101000a900460ff16801561044c5750600460000160149054906101000a900460ff165b61048b576040517f08c379a000000000000000000000000000000000000000000000000000000000815260040161048290612325565b60405180910390fd5b6000806000610498610e00565b9250925092508373ffffffffffffffffffffffffffffffffffffffff16826000015173ffffffffffffffffffffffffffffffffffffffff1614610510576040517f08c379a0000000000000000000000000000000000000000000000000000000008152600401610507906125ca565b60405180910390fd5b61051a818461119e565b1561055a576040517f08c379a000000000000000000000000000000000000000000000000000000000815260040161055190612636565b60405180910390fd5b80604001518311156105a1576040517f08c379a0000000000000000000000000000000000000000000000000000000008152600401610598906124a8565b60405180910390fd5b600760009054906101000a900473ffffffffffffffffffffffffffffffffffffffff1673ffffffffffffffffffffffffffffffffffffffff1663a9059cbb83600001518460400151866105f49190612374565b6040518363ffffffff1660e01b81526004016106119291906124c8565b6020604051808303816000875af1158015610630573d6000803e3d6000fd5b505050506040513d601f19601f82011682018060405250810190610654919061251d565b506000610670610669836040015160026111d9565b600a610dea565b905061067c81856111ef565b826040015111156107f657600760009054906101000a900473ffffffffffffffffffffffffffffffffffffffff1673ffffffffffffffffffffffffffffffffffffffff1663a9059cbb33836040518363ffffffff1660e01b81526004016106e49291906124c8565b6020604051808303816000875af1158015610703573d6000803e3d6000fd5b505050506040513d601f19601f82011682018060405250810190610727919061251d565b5061073f610739836040015183611205565b85611205565b826040018181525050600760009054906101000a900473ffffffffffffffffffffffffffffffffffffffff1673ffffffffffffffffffffffffffffffffffffffff1663a9059cbb836000015184604001516040518363ffffffff1660e01b81526004016107ad9291906124c8565b6020604051808303816000875af11580156107cc573d6000803e3d6000fd5b505050506040513d601f19601f820116820180604052508101906107f0919061251d565b506108a5565b600760009054906101000a900473ffffffffffffffffffffffffffffffffffffffff1673ffffffffffffffffffffffffffffffffffffffff1663a9059cbb33610843856040015188611205565b6040518363ffffffff1660e01b81526004016108609291906124c8565b6020604051808303816000875af115801561087f573d6000803e3d6000fd5b505050506040513d601f19601f820116820180604052508101906108a3919061251d565b505b50505050600160008190555050565b6009544211156108f9576040517f08c379a00000000000000000000000000000000000000000000000000000000081526004016108f0906126a2565b60405180910390fd5b426009819055506000600a60065461091191906126f1565b9050600760009054906101000a900473ffffffffffffffffffffffffffffffffffffffff1673ffffffffffffffffffffffffffffffffffffffff166323b872dd3330846040518463ffffffff1660e01b815260040161097293929190612722565b6020604051808303816000875af1158015610991573d6000803e3d6000fd5b505050506040513d601f19601f820116820180604052508101906109b5919061251d565b50600260000160009054906101000a900473ffffffffffffffffffffffffffffffffffffffff1673ffffffffffffffffffffffffffffffffffffffff163373ffffffffffffffffffffffffffffffffffffffff1603610ade576040518060600160405280600260000160009054906101000a900473ffffffffffffffffffffffffffffffffffffffff1673ffffffffffffffffffffffffffffffffffffffff16815260200160011515815260200182815250600260008201518160000160006101000a81548173ffffffffffffffffffffffffffffffffffffffff021916908373ffffffffffffffffffffffffffffffffffffffff16021790555060208201518160000160146101000a81548160ff021916908315150217905550604082015181600101559050505b600460000160009054906101000a900473ffffffffffffffffffffffffffffffffffffffff1673ffffffffffffffffffffffffffffffffffffffff163373ffffffffffffffffffffffffffffffffffffffff1603610c06576040518060600160405280600460000160009054906101000a900473ffffffffffffffffffffffffffffffffffffffff1673ffffffffffffffffffffffffffffffffffffffff16815260200160011515815260200182815250600460008201518160000160006101000a81548173ffffffffffffffffffffffffffffffffffffffff021916908373ffffffffffffffffffffffffffffffffffffffff16021790555060208201518160000160146101000a81548160ff021916908315150217905550604082015181600101559050505b600260000160149054906101000a900460ff168015610c345750600460000160149054906101000a900460ff165b15610d3757600160009054906101000a900473ffffffffffffffffffffffffffffffffffffffff1673ffffffffffffffffffffffffffffffffffffffff166335ea6a75600760009054906101000a900473ffffffffffffffffffffffffffffffffffffffff166040518263ffffffff1660e01b8152600401610cb69190612241565b61014060405180830381865afa158015610cd4573d6000803e3d6000fd5b505050506040513d601f19601f82011682018060405250810190610cf891906127c2565b90919293949596979850909192939495969750909192939495965090919293949550909192939450909192935090919250905050600a60008291905055505b50565b60048060000160009054906101000a900473ffffffffffffffffffffffffffffffffffffffff16908060000160149054906101000a900460ff16908060010154905083565b60028060000160009054906101000a900473ffffffffffffffffffffffffffffffffffffffff16908060000160149054906101000a900460ff16908060010154905083565b600160009054906101000a900473ffffffffffffffffffffffffffffffffffffffff1681565b60008183610df891906126f1565b905092915050565b6000610e0a6120fe565b610e126120fe565b6000600160009054906101000a900473ffffffffffffffffffffffffffffffffffffffff1673ffffffffffffffffffffffffffffffffffffffff166335ea6a75600760009054906101000a900473ffffffffffffffffffffffffffffffffffffffff166040518263ffffffff1660e01b8152600401610e919190612241565b61014060405180830381865afa158015610eaf573d6000803e3d6000fd5b505050506040513d601f19601f82011682018060405250810190610ed391906127c2565b5050975050505050505050600a548111610eec57600080fd5b6000610f05610efd836006546111d9565b600a54610dea565b90506000610f33610f25610f1d600b5460085461121b565b6006546111d9565b670de0b6b3a7640000610dea565b90508082111561106d578082610f49919061254a565b60046002816040518060600160405290816000820160009054906101000a900473ffffffffffffffffffffffffffffffffffffffff1673ffffffffffffffffffffffffffffffffffffffff1673ffffffffffffffffffffffffffffffffffffffff1681526020016000820160149054906101000a900460ff161515151581526020016001820154815250509150806040518060600160405290816000820160009054906101000a900473ffffffffffffffffffffffffffffffffffffffff1673ffffffffffffffffffffffffffffffffffffffff1673ffffffffffffffffffffffffffffffffffffffff1681526020016000820160149054906101000a900460ff161515151581526020016001820154815250509050955095509550505050611199565b8181611079919061254a565b60026004816040518060600160405290816000820160009054906101000a900473ffffffffffffffffffffffffffffffffffffffff1673ffffffffffffffffffffffffffffffffffffffff1673ffffffffffffffffffffffffffffffffffffffff1681526020016000820160149054906101000a900460ff161515151581526020016001820154815250509150806040518060600160405290816000820160009054906101000a900473ffffffffffffffffffffffffffffffffffffffff1673ffffffffffffffffffffffffffffffffffffffff1673ffffffffffffffffffffffffffffffffffffffff1681526020016000820160149054906101000a900460ff1615151515815260200160018201548152505090509550955095505050505b909192565b6000806111ad600654846111ef565b905060006111c66111bf8360076111d9565b6064610dea565b9050808560400151119250505092915050565b600081836111e791906128a1565b905092915050565b600081836111fd9190612374565b905092915050565b60008183611213919061254a565b905092915050565b6000808303611244576000821461123357600061123d565b670de0b6b3a76400005b9050611261565b61125e61125961125385611267565b846113c3565b611520565b90505b92915050565b60008082136112ad57816040517f613f4fba0000000000000000000000000000000000000000000000000000000081526004016112a49190612914565b60405180910390fd5b6000670de0b6b3a764000083126112c757600190506112ff565b7fffffffffffffffffffffffffffffffffffffffffffffffffffffffffffffffff9050826ec097ce7bc90715b34b9f10000000000492505b6000611322670de0b6b3a7640000858161131c5761131b6126c2565b5b0561160e565b9050670de0b6b3a76400008102925060008185901d9050670de0b6b3a764000081036113555782840293505050506113be565b60006706f05b59d3b2000090505b60008113156113b457670de0b6b3a764000082830281611386576113856126c2565b5b059150670de0b6b3a764000060020282126113a8578085019450600182901d91505b600181901d9050611363565b5082840293505050505b919050565b60007f800000000000000000000000000000000000000000000000000000000000000083148061141257507f800000000000000000000000000000000000000000000000000000000000000082145b15611449576040517f3406846c00000000000000000000000000000000000000000000000000000000815260040160405180910390fd5b6000806000851261145a578461145f565b846000035b91506000841261146f5783611474565b836000035b905060006114828383611725565b90507f7fffffffffffffffffffffffffffffffffffffffffffffffffffffffffffffff8111156114e957806040517fbf79e8d90000000000000000000000000000000000000000000000000000000081526004016114e0919061292f565b60405180910390fd5b60008060016000038813915060016000038713905060018183181461150e5782611513565b826000035b9550505050505092915050565b60008082121561158d577ffffffffffffffffffffffffffffffffffffffffffffffffcc22e87f6eb468eeb82121561155b5760009050611609565b61156782600003611520565b6ec097ce7bc90715b34b9f100000000081611585576115846126c2565b5b059050611608565b680a688906bd8b00000082126115da57816040517fe69458f90000000000000000000000000000000000000000000000000000000081526004016115d19190612914565b60405180910390fd5b6000670de0b6b3a7640000604084901b816115f8576115f76126c2565b5b04905061160481611822565b9150505b5b919050565b6000700100000000000000000000000000000000821061163f57608082901c915060808161163c9190612374565b90505b68010000000000000000821061166657604082901c91506040816116639190612374565b90505b640100000000821061168957602082901c91506020816116869190612374565b90505b6201000082106116aa57601082901c91506010816116a79190612374565b90505b61010082106116ca57600882901c91506008816116c79190612374565b90505b601082106116e957600482901c91506004816116e69190612374565b90505b6004821061170857600282901c91506002816117059190612374565b90505b600282106117205760018161171d9190612374565b90505b919050565b60008060008019848609848602925082811083820303915050670de0b6b3a7640000811061178a57806040517fd31b3402000000000000000000000000000000000000000000000000000000008152600401611781919061292f565b60405180910390fd5b600080670de0b6b3a764000086880991506706f05b59d3b1ffff82119050600083036117d65780670de0b6b3a764000085816117c9576117c86126c2565b5b040194505050505061181c565b807faccb18165bd6fe31ae1cf318dc5b51eee0e1ba569b88cd74c1773b91fac1066960016204000080600003040186851186030262040000858803041702019450505050505b92915050565b600077800000000000000000000000000000000000000000000000905060006780000000000000008316111561186557604068016a09e667f3bcc9098202901c90505b60006740000000000000008316111561188b5760406801306fe0a31b7152df8202901c90505b6000672000000000000000831611156118b15760406801172b83c7d517adce8202901c90505b6000671000000000000000831611156118d757604068010b5586cf9890f62a8202901c90505b6000670800000000000000831611156118fd5760406801059b0d31585743ae8202901c90505b600067040000000000000083161115611923576040680102c9a3e778060ee78202901c90505b60006702000000000000008316111561194957604068010163da9fb33356d88202901c90505b60006701000000000000008316111561196f576040680100b1afa5abcbed618202901c90505b600066800000000000008316111561199457604068010058c86da1c09ea28202901c90505b60006640000000000000831611156119b95760406801002c605e2e8cec508202901c90505b60006620000000000000831611156119de576040680100162f3904051fa18202901c90505b6000661000000000000083161115611a035760406801000b175effdc76ba8202901c90505b6000660800000000000083161115611a28576040680100058ba01fb9f96d8202901c90505b6000660400000000000083161115611a4d57604068010002c5cc37da94928202901c90505b6000660200000000000083161115611a725760406801000162e525ee05478202901c90505b6000660100000000000083161115611a9757604068010000b17255775c048202901c90505b60006580000000000083161115611abb5760406801000058b91b5bc9ae8202901c90505b60006540000000000083161115611adf576040680100002c5c89d5ec6d8202901c90505b60006520000000000083161115611b0357604068010000162e43f4f8318202901c90505b60006510000000000083161115611b27576040680100000b1721bcfc9a8202901c90505b60006508000000000083161115611b4b57604068010000058b90cf1e6e8202901c90505b60006504000000000083161115611b6f5760406801000002c5c863b73f8202901c90505b60006502000000000083161115611b93576040680100000162e430e5a28202901c90505b60006501000000000083161115611bb75760406801000000b1721835518202901c90505b600064800000000083161115611bda576040680100000058b90c0b498202901c90505b600064400000000083161115611bfd57604068010000002c5c8601cc8202901c90505b600064200000000083161115611c205760406801000000162e42fff08202901c90505b600064100000000083161115611c4357604068010000000b17217fbb8202901c90505b600064080000000083161115611c665760406801000000058b90bfce8202901c90505b600064040000000083161115611c89576040680100000002c5c85fe38202901c90505b600064020000000083161115611cac57604068010000000162e42ff18202901c90505b600064010000000083161115611ccf576040680100000000b17217f88202901c90505b6000638000000083161115611cf157604068010000000058b90bfc8202901c90505b6000634000000083161115611d135760406801000000002c5c85fe8202901c90505b6000632000000083161115611d35576040680100000000162e42ff8202901c90505b6000631000000083161115611d575760406801000000000b17217f8202901c90505b6000630800000083161115611d79576040680100000000058b90c08202901c90505b6000630400000083161115611d9b57604068010000000002c5c8608202901c90505b6000630200000083161115611dbd5760406801000000000162e4308202901c90505b6000630100000083161115611ddf57604068010000000000b172188202901c90505b60006280000083161115611e005760406801000000000058b90c8202901c90505b60006240000083161115611e21576040680100000000002c5c868202901c90505b60006220000083161115611e4257604068010000000000162e438202901c90505b60006210000083161115611e63576040680100000000000b17218202901c90505b60006208000083161115611e8457604068010000000000058b918202901c90505b60006204000083161115611ea55760406801000000000002c5c88202901c90505b60006202000083161115611ec6576040680100000000000162e48202901c90505b60006201000083161115611ee75760406801000000000000b1728202901c90505b600061800083161115611f07576040680100000000000058b98202901c90505b600061400083161115611f2757604068010000000000002c5d8202901c90505b600061200083161115611f475760406801000000000000162e8202901c90505b600061100083161115611f6757604068010000000000000b178202901c90505b600061080083161115611f875760406801000000000000058c8202901c90505b600061040083161115611fa7576040680100000000000002c68202901c90505b600061020083161115611fc7576040680100000000000001638202901c90505b600061010083161115611fe7576040680100000000000000b18202901c90505b6000608083161115612006576040680100000000000000598202901c90505b60006040831611156120255760406801000000000000002c8202901c90505b6000602083161115612044576040680100000000000000168202901c90505b60006010831611156120635760406801000000000000000b8202901c90505b6000600883161115612082576040680100000000000000068202901c90505b60006004831611156120a1576040680100000000000000038202901c90505b60006002831611156120c0576040680100000000000000018202901c90505b60006001831611156120df576040680100000000000000018202901c90505b670de0b6b3a764000081029050604082901c60bf0381901c9050919050565b6040518060600160405280600073ffffffffffffffffffffffffffffffffffffffff168152602001600015158152602001600081525090565b600080fd5b600073ffffffffffffffffffffffffffffffffffffffff82169050919050565b60006121678261213c565b9050919050565b6121778161215c565b811461218257600080fd5b50565b6000813590506121948161216e565b92915050565b6000602082840312156121b0576121af612137565b5b60006121be84828501612185565b91505092915050565b6121d08161215c565b82525050565b60008115159050919050565b6121eb816121d6565b82525050565b6000819050919050565b612204816121f1565b82525050565b600060608201905061221f60008301866121c7565b61222c60208301856121e2565b61223960408301846121fb565b949350505050565b600060208201905061225660008301846121c7565b92915050565b600082825260208201905092915050565b7f5265656e7472616e637947756172643a207265656e7472616e742063616c6c00600082015250565b60006122a3601f8361225c565b91506122ae8261226d565b602082019050919050565b600060208201905081810360008301526122d281612296565b9050919050565b7f436f6e7472616374206e6f7420796574207369676e6564000000000000000000600082015250565b600061230f60178361225c565b915061231a826122d9565b602082019050919050565b6000602082019050818103600083015261233e81612302565b9050919050565b7f4e487b7100000000000000000000000000000000000000000000000000000000600052601160045260246000fd5b600061237f826121f1565b915061238a836121f1565b9250827fffffffffffffffffffffffffffffffffffffffffffffffffffffffffffffffff038211156123bf576123be612345565b5b828201905092915050565b7f436f6e7472616374206e6f74206174206d617475726974792079657400000000600082015250565b6000612400601c8361225c565b915061240b826123ca565b602082019050919050565b6000602082019050818103600083015261242f816123f3565b9050919050565b7f546869732073686f756c642068617665206265656e206c69717569646174656460008201527f206279206e6f7700000000000000000000000000000000000000000000000000602082015250565b600061249260278361225c565b915061249d82612436565b604082019050919050565b600060208201905081810360008301526124c181612485565b9050919050565b60006040820190506124dd60008301856121c7565b6124ea60208301846121fb565b9392505050565b6124fa816121d6565b811461250557600080fd5b50565b600081519050612517816124f1565b92915050565b60006020828403121561253357612532612137565b5b600061254184828501612508565b91505092915050565b6000612555826121f1565b9150612560836121f1565b92508282101561257357612572612345565b5b828203905092915050565b7f506f736974696f6e20697320696e2d7468652d6d6f6e65790000000000000000600082015250565b60006125b460188361225c565b91506125bf8261257e565b602082019050919050565b600060208201905081810360008301526125e3816125a7565b9050919050565b7f506f736974696f6e206973207374696c6c207361666500000000000000000000600082015250565b600061262060168361225c565b915061262b826125ea565b602082019050919050565b6000602082019050818103600083015261264f81612613565b9050919050565b7f4d697373656420646561646c696e650000000000000000000000000000000000600082015250565b600061268c600f8361225c565b915061269782612656565b602082019050919050565b600060208201905081810360008301526126bb8161267f565b9050919050565b7f4e487b7100000000000000000000000000000000000000000000000000000000600052601260045260246000fd5b60006126fc826121f1565b9150612707836121f1565b925082612717576127166126c2565b5b828204905092915050565b600060608201905061273760008301866121c7565b61274460208301856121c7565b61275160408301846121fb565b949350505050565b612762816121f1565b811461276d57600080fd5b50565b60008151905061277f81612759565b92915050565b600064ffffffffff82169050919050565b61279f81612785565b81146127aa57600080fd5b50565b6000815190506127bc81612796565b92915050565b6000806000806000806000806000806101408b8d0312156127e6576127e5612137565b5b60006127f48d828e01612770565b9a505060206128058d828e01612770565b99505060406128168d828e01612770565b98505060606128278d828e01612770565b97505060806128388d828e01612770565b96505060a06128498d828e01612770565b95505060c061285a8d828e01612770565b94505060e061286b8d828e01612770565b93505061010061287d8d828e01612770565b92505061012061288f8d828e016127ad565b9150509295989b9194979a5092959850565b60006128ac826121f1565b91506128b7836121f1565b9250817fffffffffffffffffffffffffffffffffffffffffffffffffffffffffffffffff04831182151516156128f0576128ef612345565b5b828202905092915050565b6000819050919050565b61290e816128fb565b82525050565b60006020820190506129296000830184612905565b92915050565b600060208201905061294460008301846121fb565b9291505056fea264697066735822122087385ed31a7c8e410bbd3fc0426646c3810d8c3d07be1c9758003e5fe25b31e664736f6c634300080d0033",
  "immutableReferences": {},
  "source": "// all this assumes that always value of marginLoser >= value diff\n// SPDX-License-Identifier: MIT\n\npragma solidity >=0.4.22 <0.9.0;\n\nimport \"@openzeppelin/contracts/utils/math/SafeMath.sol\";\nimport \"@openzeppelin/contracts/token/ERC20/ERC20.sol\";\nimport \"@openzeppelin/contracts/security/ReentrancyGuard.sol\";\nimport \"@prb/math/contracts/PRBMathSD59x18.sol\";\nimport \"./AaveProtocolDataProvider.sol\";\n//import \"@aave/protocol-v2/contracts/misc/AaveProtocolDataProvider.sol\";\n\ncontract IrsContract is ReentrancyGuard{\n\n  address public AAVE_CONTRACT;\n  // = \"0x3c73A5E5785cAC854D468F727c606C07488a29D6\";\n\n  Party public ft;\n  Party public vt;\n\n  struct Party{\n    address wallet;\n    bool signed;\n    uint marginAmount;\n  }\n\n  uint notionalAmount;\n  address asset;\n  uint duration;\n  uint initTime;\n  uint initIndex;\n  uint fixedRatePerSecond;\n\n  // @description Registers an IRS contract\n  // @note all values must be provided with 18 decimals (apart from duration)\n  // @params asset: underlying asset\n  // notional: notional amount\n  // duration: term of contract in seconds, count-down since both signatures are gathered\n  // initTime: timestamp that determines deadline for signature gathering\n  // ft: fixed rate taker\n  // vt: variable rate taker\n  // fixedYearRate: the constant fixed interest rate per year\n  constructor(address _asset,\n    uint _notional,\n    uint128 _duration,\n    uint _initTime,\n    address _ft,\n    address _vt,\n    uint128 _fixedYearRate,\n    address _AAVE_CONTRACT) public\n  {\n    require(block.timestamp < _initTime, \"please choose a time in the future\");\n    AAVE_CONTRACT = _AAVE_CONTRACT;\n\n    asset = _asset;\n    notionalAmount = _notional;\n    duration = _duration;\n    initTime = _initTime;\n    fixedRatePerSecond = SafeMath.div(_fixedYearRate, 31536000) + 1e18;\n\n    ft = Party(_ft, false, 0);\n    vt = Party(_vt, false, 0);\n  }\n\n  // @description Called by parties to sign the contract and deposit their margin\n  function signAndDepositMargin() public {\n    require(block.timestamp <= initTime, \"Missed deadline\");\n    initTime = block.timestamp;\n\n    // deposit margin\n    uint marginAmount = notionalAmount/10;\n    ERC20(asset).transferFrom(msg.sender, address(this), marginAmount);\n\n    // register signature\n    if(msg.sender == ft.wallet){\n      ft = Party(ft.wallet, true, marginAmount);\n    }\n    if(msg.sender == vt.wallet){\n      vt = Party(vt.wallet, true, marginAmount);\n    }\n\n    // record initial yield index when both signatures are gathered\n    if(ft.signed && vt.signed){\n      (,,,,,,,initIndex,,) = AaveProtocolDataProvider(AAVE_CONTRACT).getReserveData(asset);\n    }\n\n  }\n\n\n  // @description Settles contract, only available at maturity\n  function settleContract() public nonReentrant {\n    require(ft.signed && vt.signed, \"Contract not yet signed\");\n    require(initTime + duration >= block.timestamp, \"Contract not at maturity yet\");\n    //require(ERC20(asset).balanceOf(address(this)) == vt.marginAmount + ft.marginAmount, \"Out of funds\");\n    //require(vt.marginAmount == ft.marginAmount);\n\n    (uint diff, Party memory winner, Party memory loser) = getDiff();\n    require(diff <= ft.marginAmount, \"This should have been liquidated by now\");\n\n    ERC20(asset).transfer(winner.wallet, diff + winner.marginAmount);\n    ERC20(asset).transfer(loser.wallet, loser.marginAmount - diff);\n  }\n\n  // @description Liquidates the contract in case margin falls under 7%\n  // Liquidator receives up to 20% of margin\n  // @params toLiquidate: address of party at risk\n  function liquidate(address toLiquidate) external nonReentrant{\n    require(ft.signed && vt.signed, \"Contract not yet signed\");\n\n    (uint diff, Party memory winner, Party memory loser) = getDiff();\n    require(winner.wallet == toLiquidate, \"Position is in-the-money\");\n\n    require(!isSafe(loser, diff), \"Position is still safe\");\n    require(diff <= loser.marginAmount, \"This should have been liquidated by now\");\n\n    ERC20(asset).transfer(winner.wallet, diff + winner.marginAmount);\n\n    uint forLiquidator = SafeMath.div(SafeMath.mul(loser.marginAmount, 2), 10);\n    // case 1: after paying the winner, liquidator can be given 20% of margin\n    // case 1: else, pay liquidator only what's left of the loser's margin\n    if(loser.marginAmount > SafeMath.add(forLiquidator, diff)){\n      ERC20(asset).transfer(msg.sender, forLiquidator);\n      loser.marginAmount = SafeMath.sub(SafeMath.sub(loser.marginAmount, forLiquidator), diff);\n      ERC20(asset).transfer(loser.wallet, loser.marginAmount);\n    } else {\n      ERC20(asset).transfer(msg.sender, SafeMath.sub(loser.marginAmount, diff));\n    }\n  }\n\n  // @description Get the cashflow difference of the two rates\n  // @returns current value difference, party in-the-money, party out-of-money\n  function getDiff() view private returns (uint, Party memory, Party memory){\n    (,,,,,,,uint currentIndex,,)= AaveProtocolDataProvider(AAVE_CONTRACT).getReserveData(asset); // * 10^27\n    require(currentIndex > initIndex);\n\n    uint valueFixed = SafeMath.div(SafeMath.mul(currentIndex, notionalAmount), initIndex); // 18 dec\n    uint valueVariable = SafeMath.div(\n      SafeMath.mul(\n        uint(PRBMathSD59x18.pow(int(fixedRatePerSecond), int(duration))),\n        notionalAmount),\n      1e18); // 18 dec\n\n    if(valueFixed > valueVariable){\n      return (valueFixed - valueVariable, vt, ft);\n    }\n    return (valueVariable - valueFixed, ft, vt);\n  }\n\n\n  // @description Return true if position is not at risk of liquidation\n  // Returns false if position should be liquidated\n  // @params party: party whose position is considered for liquidation\n  // diff: current cashflow difference\n  function isSafe(Party memory party, uint diff) view private returns (bool) {\n    uint accuredValue =  SafeMath.add(notionalAmount, diff);\n    uint liquidationLimit = SafeMath.div(SafeMath.mul(accuredValue, 7), 100);\n\n    return party.marginAmount > liquidationLimit;\n  }\n\n}\n",
  "sourcePath": "/Users/ioanaroceanu/Documents/Blog Code/interest-rate-swaps/contracts/IrsContract.sol",
  "compiler": {
    "name": "solc",
    "version": "0.8.13+commit.abaa5c0e.Emscripten.clang"
  },
  "schemaVersion": "3.4.3",
  "updatedAt": "2022-05-10T23:49:29.959Z",
  "networkType": "ethereum",
  "devdoc": {
    "kind": "dev",
    "methods": {},
    "version": 1
  },
  "userdoc": {
    "errors": {
      "PRBMathSD59x18__Exp2InputTooBig(int256)": [
        {
          "notice": "Emitted when the input is greater than 192."
        }
      ],
      "PRBMathSD59x18__LogInputTooSmall(int256)": [
        {
          "notice": "Emitted when the input is less than or equal to zero."
        }
      ],
      "PRBMathSD59x18__MulInputTooSmall()": [
        {
          "notice": "Emitted when one of the inputs is MIN_SD59x18."
        }
      ],
      "PRBMathSD59x18__MulOverflow(uint256)": [
        {
          "notice": "Emitted when the intermediary absolute result overflows SD59x18."
        }
      ],
      "PRBMath__MulDivFixedPointOverflow(uint256)": [
        {
          "notice": "Emitted when the result overflows uint256."
        }
      ]
    },
    "kind": "user",
    "methods": {},
    "version": 1
  }
}